:020000040800F2
:10000000707C00209D0100081F2800089322000832
:100010001D2800088309000899440008000000001A
:10002000000000000000000000000000AD290008F2
:10003000050A000800000000AB290008AF290008ED
:10004000B7010008B7010008B7010008B7010008B0
:10005000B7010008B7010008090A0008B701000845
:10006000B7010008B7010008B7010008B701000890
:10007000B7010008B7010008B7010008B701000880
:10008000B7010008B7010008B7010008B701000870
:10009000B7010008B7010008B7010008B701000860
:1000A000B7010008B7010008B7010008B701000850
:1000B000B7010008B7010008B7010008B701000840
:1000C000B7010008B7010008B7010008B701000830
:1000D000B7010008B7010008B7010008B701000820
:1000E000B7010008B7010008B7010008B701000810
:1000F000B7010008B7010008B7010008B701000800
:10010000B7010008B7010008B7010008B7010008EF
:10011000B7010008B7010008B7010008B7010008DF
:10012000B7010008B7010008B7010008B7010008CF
:10013000B7010008B7010008B7010008B7010008BF
:10014000B7010008B7010008B7010008212800081E
:10015000B7010008B7010008B7010008B70100089F
:10016000B7010008B7010008B7010008B70100088F
:10017000B7010008B7010008B7010008000000003F
:10018000B7010008B7010008DFF80CD000F0BCFB95
:10019000004800474D610008707C002006488047F9
:1001A00006480047FEE7FEE7FEE7FEE7FEE7FEE75C
:1001B000FEE7FEE7FEE7FEE73D2A000889010008AA
:1001C0002DE9F05F0546002092469B46884606468C
:1001D000814640241BE0284641464746224600F01F
:1001E00034FA53465A46C01A914110D31146184664
:1001F000224600F01BFA2D1A67EB01084F462246F3
:100200000120002100F012FA17EB00094E41201ED8
:10021000A4F10104DFDC484631462A464346BDE8E6
:10022000F09F40EA01039B0703D009E008C9121FB1
:1002300008C0042AFAD203E011F8013B00F8013BA0
:10024000521EF9D27047D2B201E000F8012B491ECC
:10025000FBD270470022F6E710B513460A46044663
:100260001946FFF7F0FF204610BD421C10F8011B95
:100270000029FBD1801A70472DE9FE4F804681EAA4
:100280000300C00F0C46009021F0004123F0004510
:10029000B8EB0200A94105D24046214690461C46D3
:1002A0000B46024623F00040104347D0270DC7F30A
:1002B0000A00C3F30A510290401A019040286BDAF9
:1002C000C3F3130040F4801B0098924620B1002332
:1002D000D2EB030A63EB0B0B01985946C0F14002C5
:1002E000504600F0A3F906460D4650465946019A7D
:1002F00000F0BBF910EB08006141002487EA1152BD
:1003000084EAE7731A4340D0009A62B3019A012A43
:100310004FEA075215DC001B61EB02014FF000426F
:1003200002EA0752CDE90042001C41F58011324635
:100330002B4600F0F2F903B0BDE8F08F40462146AD
:10034000F9E7001B61EB0201001C41F58013001866
:100350005B412018A2F5001747EB030140EAD57076
:10036000B6196D4111E06D084FEA360645EAC075D1
:100370004FEA0752001B61EB0201001C41F580119E
:1003800049084FEA30000019514132462B4603B06C
:10039000BDE8F04F00F0B2B9009801224000002300
:1003A000D0EB020263EBE073009821464FEAE07461
:1003B000B8EB000061EB0401E9E783F000435BE781
:1003C00081F0004158E72DE9FE4F81EA030404F073
:1003D000004421F0004100944FF0000B23F0004353
:1003E00050EA01045ED052EA03045BD0C3F30A541E
:1003F000C1F30A552C44A4F2F3340194A0FB025437
:10040000C1F3130141F48011C3F3130343F48013C8
:1004100001FB024400FB034E840A970A44EA81541C
:1004200047EA8357A4FB076802958D0A05FB0785F9
:100430004FEA932C04FB0C542705029D4FEA065803
:1004400047EA1637B5EB08056EEB070C870E920EE0
:1004500047EA811742EA8312A7FB0201B6EB0B01C0
:1004600064EB00042B0D43EA0C335E1844EB1C5084
:10047000DA465146E7FB0201C5F313044FEA0B339A
:1004800043EA14534FEA0432019C43EA0603A4F101
:100490000C040294009CCDE900B400F03EF903B0D6
:1004A000BDE8F08F00200146F9E72DE9F04D81EA23
:1004B000030404F0004B21F0004514464FF0000AFD
:1004C00023F0004150EA050220D054EA01021DD079
:1004D000C5F30A570246C5F31303C1F31300C1F372
:1004E0000A5640F4801543F48013A7EB0608101B4E
:1004F000D64608F2FD3873EB050002D308F1010877
:1005000001E092185B41B8F1000F03DA00200146C8
:10051000BDE8F08D00204FF48011064684460EE0C1
:10052000171B73EB050705D3121B63EB050306438B
:100530004CEA010C49084FEA300092185B4150EA3E
:100540000107EDD152EA030012D082EA040083EAE7
:100550000501084305D0101BAB4106D20122002340
:1005600006E000224FF0004302E06FF0010253105A
:100570001AEB06004CEB085110EB0A0041EB0B01A3
:10058000BDE8F04D00F0BAB80EB540F2334102912B
:100590000021CDE900110A460B4600F0BEF803B079
:1005A00000BD00F0004230F000400AD0C10D01F55E
:1005B0006071C0F3160042EA0151C20840071143BE
:1005C000704700200146704701F0004330B421F02D
:1005D000004150EA010206D00A0DA2F56072C1F393
:1005E0001301002A02DC30BC00207047440F44EAAB
:1005F000C104C100E01830BC00EBC25000F047B8A5
:1006000030B50B46014600202022012409E021FAE2
:1006100002F59D4205D303FA02F5491B04FA02F5DF
:100620002844151EA2F10102F1DC30BD202A04DBB2
:10063000203A00FA02F1002070479140C2F12003F5
:1006400020FA03F3194390407047202A04DB203A34
:1006500021FA02F00021704721FA02F3D040C2F1E2
:1006600020029140084319467047202A06DBCB1729
:10067000203A41FA02F043EAE07306E041FA02F35D
:10068000D040C2F12002914008431946704700292A
:10069000A8BF7047401C490008BF20F00100704708
:1006A00010B4B0FA80FC00FA0CF050EA010404BF68
:1006B00010BC704749B1CCF1200421FA04F411FABE
:1006C0000CF118BF012121430843A3EB0C01CB1D02
:1006D0004FEA00614FEA102042BF002010BC704773
:1006E00000EBC35010440029A4BF10BC7047401C4D
:1006F000490008BF20F0010010BC704710B5141E5F
:1007000073F1000408DA401C41F1000192185B41CA
:100710001A4301D120F0010010BD2DE9F04D9246A1
:100720009B4611B1B1FA81F202E0B0FA80F22032B8
:100730009046FFF77BFF04460F4640EA0A0041EA75
:100740000B0153465A46084313D0114653EA0100A1
:1007500019D0C8F140025046FFF777FF05460E4614
:10076000504659464246FFF761FF084305D0012035
:1007700004E020463946BDE8F08D0020054346EAF6
:10078000E0762C4337430A986305E40AA0EB08009F
:100790000022FD0A44EA47540A3002D500200146EF
:1007A000E9E7010510196941DDE9084500196941CA
:1007B000BDE8F04DA2E770B521F0004303430CD033
:1007C000C1F30A550024D5EB040564EB0403D617E6
:1007D000AD1AB34102DB0020014670BD201841EB89
:1007E000025170BD2DE9F04D00231A461B1A8A41B3
:1007F00003DB00200146BDE8F08DC1F30A52C1F3CE
:10080000130141F480154FF0000BD10702D10018FD
:100810006D41521E0027044640F2FF11384601EB9D
:10082000620A3E468046024600204FF48011FFF7E0
:100830000CFFC2197141BB1846EB0100B4EB030C6D
:1008400075EB000C04D3E41A65EB000517460E4661
:10085000241908F101006D4180463428E3DDF919BF
:1008600046EB0600091BA84103D24FF0FF321346A6
:1008700001E0002213461BEB070046EB0A51BDE8DE
:10088000F04DFFF73BBF0EB5C10F80EAE0700844A2
:10089000CA07002140F233438DE80E000A460B469A
:1008A000FFF73BFF03B000BDC1F30A52C1F31301D0
:1008B00040F2FF3341F480119A4202DA00200146EF
:1008C000704740F233439A42A2F2334202DC524272
:1008D000FFF7BBBEFFF7AABE30B5041E71F10004DE
:1008E00004DB4FF00044404264EB0101141E73F13D
:1008F000000405DB1C464FF00043524263EB040347
:10090000994208BF904230BD064C074D06E0E068B2
:1009100040F0010394E8070098471034AC42F6D346
:10092000FFF736FCB8680008D868000870B58C1866
:1009300010F8015B15F0070301D110F8013B2A11F3
:1009400006D110F8012B03E010F8016B01F8016BE0
:100950005B1EF9D12B0705D40023521E0DD401F8DC
:10096000013BFAE710F8013BCB1A921C03E013F8A5
:10097000015B01F8015B521EF9D5A142D8D30020DA
:1009800070BDFEE7002070470020704710B50022C0
:100990000449054802F00CFB0449034802F002FB3D
:1009A000002010BD6C140020C80300206C0C002037
:1009B00010B50146034802F0F5FA024802F0D6FAF3
:1009C000002010BDC803002070B50C460A4605463D
:1009D00001460A48FFF725FC0948D0F89012D1F8E3
:1009E000140208B1012070BD22462946044802F0D5
:1009F000DFFABDE87040024802F038BB6C140020FA
:100A0000C80300207047000010B500242DED028BB4
:100A10009FED118AE0B205F039FEE0B205F094FADC
:100A200000F016F9B0EE480AE1B2F0EE402AB0EE5E
:100A3000402AF0EE401AB0EE401AF0EE400A05F0FF
:100A400037FE641C062CE5DBBDEC028B0120BDE803
:100A5000104000F019B800000000000070470000CE
:100A600070B5044600F0F4F80546601C02D0044856
:100A70000078044400F0ECF8401BA042FAD370BDAB
:100A80006000002070470000044910B50A68024267
:100A900002D00860FFF7F6FF10BD0000143C0140D3
:100AA0002DE9F84FDFF87CB100224FF001084FF03C
:100AB000030A4FF00F090BF1040E00BF0B6808FA90
:100AC00002F42340A3426ED14D68022D01D0122DB5
:100AD0000ED1D50800EB850CDCF820505607F70E38
:100AE00009FA07F6B5430E69BE402E43CCF82060E4
:100AF000066855000F790AFA05FC07F0030726EA95
:100B00000C06AF40374307604E68012E05D0022E19
:100B100003D0112E01D0122E0ED18668CF6826EA9E
:100B20000C06AF40374387604668A6430C79C4F390
:100B30000014944034434460C6688C6826EA0C066E
:100B4000AC403443C4604C68E40065D5364C25683D
:100B500045F480452560246822F0030504F48044B0
:100B60000094324C2E19D6F8084895072F0F09FA31
:100B700007F5AC432E4DA84201D1002524E02D4DB0
:100B8000A84201D101251FE02B4DA84201D1022529
:100B90001AE02A4DA84201D1032515E0284DA842AC
:100BA00002D1042510E037E0264DA84201D10525E9
:100BB0000AE0254DA84201D1062505E0234DA842B3
:100BC00001D1072500E00825BD402543C6F8085897
:100BD000DBF800405D464E689C43F60300D51C439D
:100BE0002C60DEF8004075464E689C43B60300D585
:100BF0001C432C600B4D08352C684E689C43F60254
:100C000000D51C432C60074D0C352C684E689C4366
:100C1000B60200D51C432C60521C102AFFF44EAFC4
:100C2000BDE8F88F003C01404438024000300140EC
:100C3000000002400004024000080240000C024094
:100C4000001002400014024000180240001C024044
:100C500001488068704700006000002070B5040003
:100C60001BD094F83D00002520B984F83C50204664
:100C700000F034FA242084F83D002068016821F057
:100C80000101016001F050F84D4A6168914201D8BC
:100C90004C4900E04C49884201D2012070BD4B49CB
:100CA0002368B0FBF1F15E6826F03F060E435E60FC
:100CB0006368934206D94FF4967359434FF47A739D
:100CC000B1FBF3F12368491C1E6A26F03F0631434D
:100CD00019626168914210D84900401EB0FBF1F2E0
:100CE000521CC2F30B02042A01D2042022E0B0FB02
:100CF000F1F0401CC0F30B001CE0A368F3B301EB60
:100D0000C10202EB0116421EB2FBF6F2521C42F483
:100D10008042120549D093B301EBC10202EB0111ED
:100D2000401EB0FBF1F0401CC0F30B0040F48040CB
:100D300040F400402168CA694CF6FF739A4310439F
:100D4000C861D4E90701084321680A6822F0C0029B
:100D500010430860D4E9030101432068826848F227
:100D6000FF339A4311438160D4E9050108432168A8
:100D7000CA6822F0FF021043C86001E00EE016E0EE
:100D80002068016841F0010101602564202084F899
:100D90003D00256384F83E50002070BD01EB410604
:100DA000421EB2FBF6F2521CB3E70120C2E701EB90
:100DB0004101401EB0FBF1F0401CC0F30B00B7E74F
:100DC000A086010080841E0000093D0040420F0003
:100DD0002DE9F84F1F4690468A460446DDF82890D4
:100DE000FFF736FF054694F83D00202875D11923FA
:100DF00001226C492046009501F038FB0028F5D10E
:100E000094F83C00012868D0012084F83C00206858
:100E10000168C90703D1016841F001010160206840
:100E2000016821F400610160222084F83D00102057
:100E300084F83E0000262664C4F824806785608D0F
:100E400020855948E0622B464A465146204601F02B
:100E500038FA002878D1208D544F68B1012814D079
:100E600002282068016816D041F480610160206882
:100E700041698069009087E020684169816900913B
:100E8000016841F4007101607EE02068016821F48E
:100E900080610160F0E721F48061016020680168F1
:100EA00041F40061E2E7032848D801280AD002286B
:100EB00014D04B46002239462046009501F0D6FA60
:100EC000D8BB27E02A464946204601F04EFBA0BB8E
:100ED00020680069616A08704DE061E04B460022BD
:100EE00039462046009501F0C1FA30BB2068016800
:100EF00041F40071016020680069616A0870606AED
:100F0000401C6062218D491E2185618D491E6185CD
:100F100021682EE02068016821F48061016020686A
:100F20000069616A0870606A401C6062208D401E22
:100F30002085608D401E6085D0E705E02A46494641
:100F4000204601F012FB10B10120BDE8F88F2068A7
:100F50000069616A0870606A401C6062218D491EE8
:100F60002185618D491E618521684A69D2435207F6
:100F70000AD409690170606A401C6062208D401EBD
:100F80002085608D401E6085208D00288BD120201B
:100F900084F83D0084F83E6084F83C600020D4E78B
:100FA0000220D2E7020010000000FFFF0400010051
:100FB0002DE9F84F1F4690468A460446DDF82890F2
:100FC000FFF746FE054694F83D0020287FD11923FF
:100FD000012240492046009501F048FA002876D1C8
:100FE00094F83C00012872D0012084F83C0020686D
:100FF0000168C90703D1016841F00101016020685F
:10100000016821F400610160212084F83D00102076
:1010100084F83E0000262664C4F824806785608D2D
:1010200020852D48E0622B464A465146204601F075
:10103000B3F990B9206841698069009036E02A468A
:101040004946204601F0C4FA50B1206C042804D16E
:101050002068016841F4007101600120BDE8F88F4B
:10106000606A216800780861606A401C6062618D76
:10107000491E6185218D491E89B2218522685369E7
:10108000DB435B070BD451B100781061606A401CF0
:101090006062608D401E6085208D401E20852A463E
:1010A0004946204601F0BCF90028CED1208D002809
:1010B000C5D154F83D0B016841F400710160202056
:1010C00004F81E09E67766770020C7E7FFE70220ED
:1010D000C4E70000020010000000FFFF10B586B05A
:1010E000044614216846FFF7B5F813492068884282
:1010F00020D11248016841F0020101600068694690
:1011000000F002000590C020009012200190012004
:10111000029003200390042004900948FFF7C0FCCC
:1011200006481030016841F400110160006800F4C5
:101130000010059006B010BD005400403038024049
:1011400000040240024881680278114481607047BF
:10115000600000200B4810B5016841F40071016087
:10116000016841F480610160016841F480710160AF
:10117000032000F071F8002000F006F800F024F8D9
:10118000002010BD003C024070B50D4D04464FF4E8
:101190007A712878B1FBF0F00A490968B1FBF0F0E8
:1011A00000F0A0FF48B9102C07D200222146501EA3
:1011B00000F032F800206C6070BD012070BD0000AE
:1011C000600000206C0000200B4882B0016841F4F0
:1011D00080410160006800F4804000900648001FD4
:1011E000016841F080510160006800F0805000907B
:1011F000052002B000F030B844380240002809DB76
:1012000000F01F02012191404009800000F1E02020
:10121000C0F8001170470000F0B40E4B1B680C467C
:10122000C3F30223C3F10705042D00D90425191DBA
:10123000072901D2002300E0DB1E012606FA05F192
:10124000491E214099409E40761E16403143F0BC15
:1012500003F04CB90CED00E0064900F00702086805
:101260004FF6FF03184040EA0220034A104308608B
:10127000704700000CED00E00000FA0570470068C0
:10128000416200207047F0B50368586A39B19C6A22
:101290004FF4827600EB144400204D1E0AE040EA31
:1012A000024098620FE006EB8007DF59401C04EB18
:1012B0001744C0B2A842F6D344EA02404FF4807209
:1012C00002EB810158500020F0BDD0F8040402F078
:1012D00020B9C1EBC10200EB8202D0F80404926C89
:1012E00002F073B8C1EBC10200EB8202D0F8040433
:1012F000D2F8082202F0CCB8D0F8040402F00BB9FE
:1013000070B504460B0601F00F00C0EBC00104EB02
:1013100081014FF001024FF0000503D581F83D2017
:101320003C3103E081F8FD5101F5FE71087094F83D
:10133000BC03012808D084F8BC23206802F062FCBA
:1013400084F8BC53002070BD022070BD70B5044607
:1013500001F00F006268904201D9012070BD0B06B8
:1013600001F00F01C1EBC10104EB81014FF001025B
:101370004FF0000503D581F83D203C3103E081F8B2
:10138000FD5101F5FE718D70087094F8BC030128C1
:1013900008D084F8BC23206802F010FE84F8BC5307
:1013A000002070BD022070BD01F00F01C1EBC10132
:1013B00000EB8100D0F8140270472DE9F04104469B
:1013C0000F0601F00F00C0EBC00104EB81014FF0EC
:1013D00001064FF0000503D581F83D603C3103E084
:1013E00081F8FD5101F5FE7108708A60CB704A7872
:1013F00002B1C880022B00D10D7194F8BC03012802
:1014000009D084F8BC63206802F04CFB284684F8BD
:10141000BC53BDE8F0810220FBE770B50C4601F03B
:101420000F05C5EBC50100EB8101C1F81032C1F811
:1014300008220023C1F8143281F8FD3181F8FC51F3
:10144000036901F5FE71012B00D10A612207027CBC
:10145000006803D002F00AFE002070BD02F0F6FC26
:10146000FAE770B504460D4601F00F006168884246
:1014700001D9012070BD29064FF000064FF001028E
:1014800007D5C0EBC00104EB810181F83D203C3160
:1014900007E0C5EBC50104EB810181F8FD6101F5B1
:1014A000FE718A70087094F8BC03012807D084F894
:1014B000BC23206802F0AEFD280702D007E002201E
:1014C00070BD217C04F57172206802F04BFD84F838
:1014D000BC63002070BD70B50C4601F00F05C5EB74
:1014E000C50100EB81010B658A6400234B65012374
:1014F00081F83D3001F83C5F0369012B00D10A619E
:101500002207027C006803D002F0B0FD002070BD0D
:1015100002F09CFCFAE700002DE9FC5F0568044638
:10152000284602F0CCFE00287ED1206802F0F3FEAF
:10153000002879D0206802F0EEFE800704D52068EC
:10154000416901F002014161206802F0E4FE0103FB
:1015500004F571704FF0010A4FF0080B009075D53B
:101560000026206802F0B6FE0746DFF808946BE01C
:10157000F80767D0F1B2206802F0C5FE8046C007C8
:1015800007D005EB4611C1F808AB3146204601F003
:101590004DF95FEA087032D52068016C00EB461007
:1015A0000191D0F8081B2269012A019A0FD0F24B51
:1015B0009A4214D1090403D54FF40041C0F8081B26
:1015C000204600F0D3FA206901280FD013E04A45E5
:1015D00005D9090403D54FF40041C0F8081B204683
:1015E00000F0C4FA01984845EDD804E020680121D4
:1015F000009A02F0B7FC05EB4611C1F808BB5FEAA0
:10160000C86004D505EB46111020C1F8080B5FEA4D
:1016100088600ED52069012804D120680121009A34
:1016200002F0A0FC202100E0A1E105EB4610C0F88B
:10163000081B5FEA884005D505EB46104FF40051C2
:10164000C0F8081B7F08761C002F91D1206802F09B
:1016500062FE40034FF000095FD5206802F033FEC0
:101660000746002657E0F80753D0F1B2206802F091
:1016700038FE8046C00726D006F00F020AFA02F0B4
:10168000D5F834288243C5F8342805EB4610C0F855
:1016900008A92069012807D1C6EBC60004EB800029
:1016A000D0E9112111448164F1B22046FFF711FE07
:1016B0002069012807D136B9206D20B920680121A1
:1016C000009A02F04FFC5FEA087003D505EB461163
:1016D000C1F808B95FEAC86004D505EB46111020CF
:1016E000C1F808095FEA486004D505EB46104021BF
:1016F000C0F808195FEA887004D505EB461002218E
:10170000C0F808195FEA086003D53146204601F0A9
:10171000FBF87F08761C002FA5D1206802F0FBFDA6
:10172000002811DAD5F8040820F00100C5F80408F3
:1017300094F8F40301282BD0204600F0FBF9206830
:10174000416901F000414161206802F0E4FD0005BB
:101750000BD5D5F80808C00702D0204600F02EFAB5
:101760002068416901F400614161206802F0D3FD05
:10177000C00461D5D5F8040820F00101C5F80418AB
:101780001021206802F07CFD00214FF67F321AE024
:1017900084F8F49300212046FFF770FDCFE700BFE7
:1017A00005EB4110C0F80829D0F8003923F40013E4
:1017B000C0F80039C0F8082BD0F8003B23F4001320
:1017C000C0F8003B491C60688842E9D8D5F81C087D
:1017D00040F00111C5F81C18206B002828460DD0D8
:1017E000D0F8840840F00B00C5F88408D5F8440808
:1017F00040F00B012846C5F844180DE0D0F8140855
:1018000042F22B010843C5F81408D5F8100840F03F
:101810000B012846C5F81018D0F8000820F4FE6126
:10182000C5F80018217C2068009A02F09BFB206814
:10183000416901F480514161206802F06CFD80042F
:1018400015D5206802F06EF9206802F02BFDE060EB
:1018500000F064FA0146227B206802F097FD2046E2
:1018600000F052F92068416901F40051416120689B
:1018700002F051FDC00634D52068816921F01001C5
:1018800081612F6A07F00F00C0EBC00004EB8006F7
:10189000C7F3434006F5FE76022802D0062811D091
:1018A0001AE047F6F070074216D0C7F30A1217463F
:1018B0002846F16802F033FDF0683844F060B06902
:1018C000384408E008222846009902F028FDB06953
:1018D000C7F30A110844B0612168886940F010001C
:1018E0008861206802F017FD000707D5204600F048
:1018F00025F92168486900F008004861206802F075
:101900000AFDC00208D50021204600F037F8216802
:10191000486900F480104861206802F0FCFC8002F5
:1019200008D50021204600F02DF82168486900F410
:1019300000104861206802F0EEFC400007D5204608
:10194000FFF7C3FC2068416901F0804141612068D4
:1019500002F0E1FC40070AD520684568680702D517
:101960002046FFF7C9FC2068416829434160BDE873
:10197000FC9F00000A30544F0A31544FD0F8040441
:1019800001F018BED0F8040401F016BE2DE9F041B4
:101990008AB0040005D094F8BD032668002520B164
:1019A00008E001200AB0BDE8F08184F8BC5320466D
:1019B00000F05EF8032084F8BD03F06BC00500D48E
:1019C0002561206802F03CFA04F1100128228846C3
:1019D0006846FEF726FC94E80F0002F0BDF80226E8
:1019E000C8BB0021206802F0A8FC002001270EE0FF
:1019F000C0EBC00104EB810181F83D7001F83C0FA0
:101A0000C880CD708D60CD60401CC0B24D616168F2
:101A10008142EDD8002011E0C0EBC00104EB810150
:101A200081F8FD5181F8FC0181F8FF51C1F80452A1
:101A3000C1F80852401CC0B2C1F81052616881421E
:101A4000EAD8282241466846FEF7EBFB94E80F00EF
:101A500002F030F910B184F8BD63A2E784F8385081
:101A600084F8BD73206802F019F900209AE700009D
:101A700030B587B0044614216846FEF7EBFB2068BA
:101A8000B0F1A04F39D11E480024016841F0010196
:101A9000016000681B4D00F0010005904FF40070DC
:101AA000CDE90004694628460294FEF7F9FF4FF499
:101AB000C05000900220CDE90104032003900A20C9
:101AC000049069462846FEF7EBFF0D48001D0168AB
:101AD00041F0800101600A481430016841F48041FE
:101AE00001600068002200F4804005901146432008
:101AF000FFF792FB4320FFF781FB07B030BD0000EA
:101B0000303802400000024070B50446C06801252C
:101B100070B1022801D0FEF7A1FF2946D4F80404D1
:101B200001F09BFDD4F80404BDE8704001F05BBDFA
:101B30000025F2E7D0F8040401F07DBDD0F80404DC
:101B400001F07FBD10B5044690F8BC0301280BD00E
:101B5000012084F8BC0384F83810206802F004FCEB
:101B6000002084F8BC0310BD022010BDD0F804246E
:101B700000F57171104601F07CBD10B50446006897
:101B800094F8BC13012906D0012184F8BC13A16A82
:101B9000012902D008E0022010BDA169012903D06B
:101BA000816B41F480318163206802F06BF820681A
:101BB00002F050FB002084F8BC0310BD10B50446B1
:101BC000D0F8040401F094FD2068D0F8001E41F024
:101BD0000101C0F8001E206A002804D002480168F4
:101BE00041F00601016010BD10ED00E02DE9F04765
:101BF0000E46050065D0DFF81481D8F80000F7B272
:101C000000F00F00B04207D288F80070D8F800004A
:101C100000F00F00B04254D128683D4C810712D526
:101C2000400703D5206840F4E05020602878000782
:101C300003D5206840F4604020602068A96820F047
:101C4000F000084320602878C0072DD0304968682C
:101C50000839012812D0022813D0032811D00968AE
:101C6000890700292DDA216821F003010143216051
:101C7000FEF7EEFF814641F2883A0EE009688903DB
:101C8000EFE709688901ECE7FEF7E2FFA0EB090145
:101C9000514502D90320BDE8F0872068696800F04B
:101CA0000C00B0EB810FEFD1D8F80010404601F0E6
:101CB0000F01B14207D90770006800F00F00B04271
:101CC00001D00120E7E72878400705D52068E968BA
:101CD00020F4E050084320602878000706D52068EB
:101CE000296920F4604040EAC100206000F03CF81F
:101CF0002168084AC1F30311515CC84006490860D5
:101D00000020FFF741FA0020C5E70000003C024038
:101D100008380240726700086C0000200148006823
:101D2000704700006C0000200448054900680968FD
:101D3000044AC1F38221515CC84070476C00002006
:101D400008380240826700080448054900680968AD
:101D5000044AC1F34231515CC84070476C00002016
:101D60000838024082670008154810B5006810F076
:101D70000C02144813D04110042A0FD0082A0ED1A7
:101D80000F4C241F2268236802F03F025B0207D534
:101D90002068C0F38810A0FB010106E0084610BDD2
:101DA0002168C1F38811A1FB00010023FEF708FAA6
:101DB0002168C1F30141491C4900B0FBF1F010BD9D
:101DC000083802400024F4002DE9F84F050076D0D1
:101DD0002878DFF8F8B2BE4CC00749D0DBF8001015
:101DE0005846C1F38101012908D00068C0F3810081
:101DF00002280AD1201D0068400206D52068800311
:101E000036D568680028E2D032E06868B0F5803FD7
:101E100010D0B0F5A02F206810D020F480302060C2
:101E2000206820F4802020606868A0B1FEF710FFD1
:101E300006460CE0206840F48030F4E740F480204F
:101E40002060F7E7FEF704FF801B642873D8206842
:101E50008003F7D50CE0FEF7FBFE064605E000BF69
:101E6000FEF7F6FE801B6428F0D820688003F7D4C4
:101E70002878DFF8608280074FF000093ED5DBF854
:101E80000010584611F00C0F09D00068C0F3810013
:101E900002280BD18D48001F0068400206D420683C
:101EA000800715D5E868012809D111E0E868B8B1C4
:101EB0000120C8F80000FEF7CBFE064605E002E16F
:101EC000FEF7C6FE801B0228C0D820688007F7D521
:101ED0002068296920F0F80040EAC10020600DE088
:101EE000C8F80090FEF7B4FE064604E0FEF7B0FE28
:101EF000801B02281FD820688007F7D428780007A5
:101F000022D5724E744869696C3671B10121016045
:101F1000FEF79EFE074604E0FEF79AFEC01B02286D
:101F200009D830688007F7D50EE0C0F80090FEF7BA
:101F30008FFE074605E083E0FEF78AFEC01B0228FD
:101F40007ED830688007F7D42878400768D5DFF856
:101F50007CA100270AF1380ADAF80000C0000BD48F
:101F6000DAF8001041F08051CAF80010DAF80000E9
:101F7000012700F080500090584E3068C00510D402
:101F8000306840F480703060FEF762FE009005E03B
:101F9000FEF75EFE0099401A022851D83068C0054D
:101FA000F6D54A4EA868683601280FD00528306853
:101FB00010D020F001003060306820F00400306064
:101FC000A868B8B1FEF744FE00900FE0306840F01A
:101FD0000100F4E740F004003060F7E7FEF738FE58
:101FE0000099411A41F28830814264D830688007F4
:101FF000F4D50EE0FEF72CFE009007E0FEF728FE79
:102000000099411A41F28830814254D830688007E3
:10201000F4D42FB1DAF8001021F08051CAF8001082
:10202000A869C0B3DBF80010C1F3810102294AD0CE
:102030000228484607D0C8F86000FEF709FE00E015
:1020400039E005463AE04746C8F86000FEF700FE72
:10205000064604E0FEF7FCFD801B02282BD8206812
:102060008001F7D4D5E907010843A96A1C4A490849
:1020700002EB01416A6A41EA8211084395F82C108B
:1020800040EA01611148001F016001203866FEF737
:10209000DFFD054605E014E0FEF7DAFD401B0228EF
:1020A00009D820688001F7D50BE000BFFEF7D0FD0E
:1020B000401B022802D90320BDE8F88F2068800168
:1020C000F4D40020F8E70120F6E7000008380240C9
:1020D0000038024000004742800E47420070004036
:1020E0000000FFFF10B5401EB0F1807F01D301203A
:1020F00010BD4FF0E02460610F21601702F0F6F987
:102100000020A06107202061002010BD70B50400F0
:1021100004D094F83900002510B106E0012070BD0C
:1021200084F83850204600F023F8242084F8390041
:102130002068C16821F40051C160204600F0A8FC6D
:102140002068016921F4904101612068416921F012
:102150002A0141612068C16841F40051C160E56312
:10216000202084F8390084F83A00002070BD000077
:1021700010B586B0044614216846FEF76BF8134983
:102180002068884220D11248016841F40031016082
:10219000006800F4003005900D481038016841F0E7
:1021A000010101600068694600F0010005900C2003
:1021B000009002200190012002900320039007204C
:1021C00004900448FEF76CFC06B010BD00440040CB
:1021D00040380240000002402DE9F843044690F8E0
:1021E00039001F4616460D46202850D1A5B19EB194
:1021F00094F8380001284AD0012084F838004FF0C4
:102200000008C4F83C80212084F83900FEF720FD46
:10221000A6848146E68426E00120BDE8F883E08CB0
:10222000401EE084A0684B46B0F5805F4FF000028E
:102230004FF080012046009703D000F07FFDE8B901
:102240000DE000F07BFDC8B928882168C0F30800C4
:102250004860206908B16D1C05E0AD1C03E02168F1
:1022600015F8010B4860E08C0028D8D14B460022BD
:1022700040212046009700F061FD08B10320CCE723
:10228000202084F8390084F838800020C5E7022037
:10229000C3E7FEE701684A69D24352050FD46FF4E1
:1022A00080624A61002140F8301F2022427381730E
:1022B000026942F0040202610173012070470020AC
:1022C00070472DE9F84F0446C06A1E4692460D46F7
:1022D00021680A6842F480620A60082807D0012851
:1022E00005D010F5803F02D0206B112804D1206862
:1022F000016841F4807101604FF0011853460022DB
:1023000041462046009600F0B1F8F0BB206908F184
:102310000109B0F5804F0FD00620216800EAD517DB
:1023200047F0F00008613346524608F107012046A5
:1023300000F0D0F848BB03E0E8B240F001001BE039
:102340002168E8B20861334652464946204600F00B
:10235000C1F8D0B92068416981690091016841F4F0
:10236000807101605346002241462046009600F0ED
:102370007DF850B947F0F1002168086133465246B4
:102380004946204600F0A6F800E001E0002800D011
:102390000120BDE8F88F0000F8B50446C06A1E466B
:1023A0000D461746082807D0012805D010F5803FB4
:1023B00002D0206B122804D12068016841F480719A
:1023C0000160134600224FF001112046009600F0F4
:1023D0004DF808BB2069B0F5804F0ED0062021686B
:1023E00000EAD51040F0F000086133463A460B4948
:1023F000204600F06FF878B902E005F0FE0000E03A
:10240000E8B221680861054933463A46891F2046EB
:1024100000F060F8002800D00120F8BD080001009D
:1024200070B516460D4604460DE02046FFF732FF14
:1024300008B1012070BD681C05D0FEF709FC801BA7
:10244000A84207D835B120684069C0434007ECD4A2
:10245000002070BD002044F8300F20216173A0736C
:10246000216941F0200121612073E2E72DE9F04765
:102470001E4690460D460446C1F30747DDF82090FE
:1024800008E0701C06D0FEF7E3FBA0EB0900B042A9
:102490000FD876B12068012F18D0806925EA000096
:1024A0000004000C14D000214145EAD00020BDE812
:1024B000F087002044F8300F20216173A073216958
:1024C00041F02001216120730120F0E74069E5E738
:1024D0000121E9E72DE9F0479A4691460E46044668
:1024E00000254FF02008C1F3074725E02068406928
:1024F000C043400514D42068016841F400710160B4
:1025000021686FF480604861256384F83D8084F819
:102510003E50206C40F00400206484F83C501FE0E2
:10252000B9F1FF3F08D0FEF793FBA0EB0A01494544
:102530000CD8B9F1000F09D02068012F13D08069A1
:1025400026EA00000004000C0BD0CFE744F8305F0F
:1025500084F80D80A573206940F020002061257368
:102560000120BDE8F0874069EAE72DE9F041002548
:1025700090460E460446202717E04069C043C00637
:102580000CD454F8301B6FF01000486144F8105917
:102590006777A577206A2062257717E0FEF758FB5A
:1025A000A0EB0800B04208D83EB120684169C94399
:1025B0004906E2D40020BDE8F08144F8305F67733B
:1025C000A573206940F02000206125730120F2E707
:1025D00070B516460D4604460DE02046FFF75AFE3C
:1025E00008B1012070BD681C05D0FEF731FB801BCF
:1025F000A84207D835B120684069C0430006ECD432
:10260000002070BD002044F8300F20216173A073BA
:10261000216941F0200121612073E2E7F0B5002338
:102620000A24302537261F4611E000BFB4EB107F87
:1026300002D905EB107C01E006EB107C01F813C019
:1026400001EB430C00015B1C8CF80170DBB2934280
:10265000ECD3F0BD77B581B015460E464FF47A74D1
:1026600001AA0123D02108480094FEF7A1FC142000
:10267000FEF7F6F9ABB23246D02103480094FEF7DC
:10268000A7FB04B0002070BD340300203EB5052A2E
:1026900002DD6FF001003EBD8DF80400002001ABAB
:1026A00003E00C5C1D18401C6C709042F9DB4FF489
:1026B0007A70521C93B2009001AAD0210248FEF712
:1026C00077FC00203EBD00003403002013B5C0B2EB
:1026D000012201A9FFF7DAFF1CBD000000B587B099
:1026E00014216846FDF7B6FD16480021026842F045
:1026F00080020260026802F080020592026842F0E5
:1027000001020260026802F001020592026842F0D2
:1027100002020260006800F00200059001200090B3
:102720000948CDE9010169460848FEF7B9F90022D8
:1027300001210620FEF770FD0620FEF75FFD07B0C1
:1027400000BD0000303802400000111000000240BF
:102750000D4810B50B4901600C49416000214FF450
:1027600080428160C0E9031241618161C1610162FF
:10277000FEF774FA002803D0BDE81040FEF76EB9EA
:1027800010BD00000054004034030020A08601006A
:102790000C4810B50A4901604FF4614141600021C5
:1027A00081600C22C160C0E904128161C161FFF740
:1027B000ADFC002803D0BDE81040FEF74FB910BDB6
:1027C000004400408803002010B500220F49104843
:1027D00000F0D4FD08B1FEF741F90E490C4800F0B5
:1027E000ADFF08B1FEF73AF90B49094800F0D2FBFA
:1027F00008B1FEF733F9064800F0F6FF002803D0D1
:10280000BDE81040FEF72AB910BD0000000000200E
:10281000C80300204C01002050000020FEE7704754
:102820000148FEF779BE0000640600202DE9F04162
:10283000044600680E46016C00EB4615D5F8080BFF
:10284000276920234FF40042012F08D02C4FB942B2
:102850004FD1010449D500BFC5F8082B4DE0DFF882
:10286000A4C05FEA007E04F5717711D5614503D9F4
:10287000000401D5C5F8082B2046FFF777F93A4642
:102880000121206801F06EFB0820C5F8080B34E038
:102890005FEA806E02D5C5F8083B2EE010F0280FE5
:1028A0002BD1614501D90004D6D4C6EBC60004EB98
:1028B0008000D5F8102BD0F80412C2F312028A1A45
:1028C000C0F81422D0F808221144C0F80812F1B25E
:1028D0002046FEF707FD86B9D4F8100268B93A46DB
:1028E0000121206801F03EFB07E0800601D5C5F814
:1028F000083BF1B22046FEF7F5FC0020BDE8F08170
:102900000A31544F0A30544F2DE9F84F0E46C1EBAF
:10291000C60100EB810481460568D4E914103C34FB
:10292000884202D90120BDE8F88F081AA1688142C7
:1029300000D20846C01C870805EB46181BE000BF04
:10294000A0EB010AA068504500D282460AF10300BC
:10295000870899F8100000901FFA8AF3F2B228460F
:10296000E16801F087FDE16801EB0A00E060A16920
:1029700001EB0A00A061D8F8180980B2B84205D36B
:10298000D4E90501814201D20028D9D1D4E9050159
:10299000884208D806F00F0101208840D5F8341885
:1029A0008143C5F834180020BDE770477047FEF733
:1029B000C9BB000030B593B030216846FDF74AFC32
:1029C00014210CA8FDF746FC1A480025016841F0C7
:1029D00080510160006800F0805011901648016835
:1029E00041F4804101600068022400F480401190AD
:1029F00001200090000401908001CDE906400820EC
:102A000008904FF4A870CDE9090407200B906846A0
:102A1000FFF7DAF90CA90F2081E831004FF4A0503C
:102A20000F90E002109005210CA8FFF7DFF813B01B
:102A300030BD00004038024000700040104801687E
:102A400041F4700101600F48016841F0010101602B
:102A50000C4A00210832116002680B4B1A400260D8
:102A6000031D0A4A1A60026822F4802202600548A7
:102A70000C30016002495806803908607047000038
:102A800088ED00E000380240FFFFF6FE1030002421
:102A90002DE9F041044600680169E26821F44051E3
:102AA000114301612169A068E2690843616911432A
:102AB00022680843D16849F20C6399430143D1600D
:102AC00020684169A26921F4407111434161E269C2
:102AD0006425B2F5004F9748974922684FF03208B5
:102AE0003FD08A4201D082427CD1FFF72DF900EB22
:102AF000C00101EB001061688900B0FBF1F6FFF73F
:102B000023F900EBC00101EB001061688900B0FB04
:102B1000F1F0B0FBF5F06FF01801484306EB8001CF
:102B200008EB0110B0FBF5F000F0F006FFF70CF930
:102B300000EBC00101EB001061688900B0FBF1F00F
:102B4000B0FBF5F006EB0016FFF7FEF800EBC00156
:102B500001EB001061688900B0FBF1F7FFF7F4F8B2
:102B6000D2E08A4201D082423DD1FFF7EDF800EB7E
:102B7000C00101EB001061684900B0FBF1F0B0FB4F
:102B8000F5F00601FFF7E0F800EBC00101EB0010E3
:102B900061684900B0FBF1F7FFF7D6F800EBC00120
:102BA00001EB001061684900B0FBF1F0B0FBF5F0FB
:102BB0006FF01801484307EB800108EBC100B0FB40
:102BC000F5F000F0F80006EB4006FFF7BDF800EB6B
:102BD000C00101EB001061684900B0FBF1F7FFF79D
:102BE000B3F83CE055E0FFF79FF800EBC00101EBC4
:102BF000001061684900B0FBF1F0B0FBF5F0060190
:102C0000FFF792F800EBC00101EB0010616849008A
:102C1000B0FBF1F7FFF788F800EBC00101EB001003
:102C200061684900B0FBF1F0B0FBF5F06FF01801FE
:102C3000484307EB800108EBC100B0FBF5F000F062
:102C4000F80006EB4006FFF76FF800EBC00101EB60
:102C5000001061684900B0FBF1F7FFF765F800EB81
:102C6000C00101EB001061684900B0FBF1F0B0FB5E
:102C7000F5F06FF01801484307EB800108EBC10045
:102C8000B0FBF5F000F00700216830448860BDE833
:102C9000F081FFF749F800EBC00101EB001061681B
:102CA0008900B0FBF1F6FFF73FF800EBC00101EB44
:102CB000001061688900B0FBF1F0B0FBF5F06FF037
:102CC0001801484306EB800108EB0110B0FBF5F05A
:102CD00000F0F006FFF728F800EBC00101EB001050
:102CE00061688900B0FBF1F0B0FBF5F006EB00166F
:102CF000FFF71AF800EBC00101EB001061688900D2
:102D0000B0FBF1F7FFF710F800EBC00101EB00108A
:102D100061688900B0FBF1F0B0FBF5F06FF01801CD
:102D2000484307EB800108EB0110B0FBF5F000F021
:102D30000F00A9E700140140001001402DE9F04107
:102D4000984617460E460446069D1DE0681C1BD09B
:102D50002DB1FDF77DFFA0EB0800A84214D9206833
:102D6000C16821F4D071C1602068416921F001017E
:102D70004161202084F8390084F83A00002084F86A
:102D800038000320BDE8F0812068006836EA0000C2
:102D900004D00020B842D9D00020F3E70120F9E7A1
:102DA00070B5054608680C460168C9434906FBD45E
:102DB0002846FDF75AFA82B229462046BDE87040FF
:102DC0004FF47A73FFF708BA2DE9F041D0F8983242
:102DD000D0F89022DAB101EB810400EB84040025E5
:102DE000E6694EB1C1EBC10703EB87035B6CB6FB31
:102DF000F3F703FB176323B1C2F814520020BDE8B8
:102E0000F08100231A46E56100F07BFCF6E7022022
:102E1000F5E770B50546D0F8904200F087FBC4F89E
:102E20000C02D5F8900248B1D5F89412D4F80402F7
:102E3000CA6804F503719047002070BD022070BD80
:102E400070B504460026812100F0B6FA0025012164
:102E50002046E56200F0B0FA82212046C4F85851BD
:102E600000F0AAFA2564D4F8900248B1D4F894028C
:102E700004F5247440688047206803F03FF925601A
:102E8000304670BD10B5D0E9A44159B194F80002A4
:102E9000FF2807D08B6894F8012221469847FF202D
:102EA00084F80002002010BD0A210180004870470C
:102EB000740000204321018000487047C4000020B6
:102EC0004321018000487047800000204321018099
:102ED00000487047080100202DE9F0410446002613
:102EE000007C4FF40077012590B34023022281211A
:102EF000204600F063FB4023E562022201212046C8
:102F000000F05CFB0823032282212046C4F85851BC
:102F100000F054FB4FF40770256403F05BFBC4F82A
:102F20009002F8B10546D4F894020068804700206A
:102F3000C5F81402C5F81802207CD5F8042298B10F
:102F400040230121204600F045FB3046BDE8F081DA
:102F5000FFE73B4602228121204600F02FFB3B4643
:102F6000E562CAE70126F0E73B46EAE710B5D0F88C
:102F7000901269B1027C002AD1F8042205D04023C6
:102F8000012100F027FB002010BD4FF40073F7E78C
:102F9000022010BD02460220002902D00020C2F803
:102FA00094127047D0F89002C0F8041200207047C5
:102FB000D0F89002C0F81022C0F808120020704724
:102FC0002DE9FC410546D0F8907200208DF80000F4
:102FD000ADF80400064608780C4610F0600121D0D8
:102FE00020293BD1E288AAB10006607807D5D5F840
:102FF00094128B6839469847E288394626E087F86C
:103000000002A07987F80102E2883946284600F0DC
:103010006AF828E0D5F89412607800228B6821467F
:10302000984720E0607820B10A2809D00B2815D1F4
:1030300010E095F87402032810D1022201A905E0DE
:1030400095F87402032809D101226946284600F048
:1030500064F808E095F87402032804D02146284655
:1030600000F036F802263046BDE8FC8110B5D0F8F5
:103070009012A1B1D1F814220AB1012010BD012291
:10308000C1F81422D1F810220263B1F8102293B2D1
:10309000D1F80822812100F034FB002010BD02206D
:1030A00010BD10B5D0F88C2252689047002010BD9A
:1030B000134610B50A46002100F08CFA002010BD1E
:1030C000134610B50A46002100F01BFB002010BD7E
:1030D00010B50446802100F0F9FA2046BDE8104002
:1030E000002100F0F3BA10B50323C0F84821C0F85E
:1030F0006C32C0F84C2113460A46002100F06AFAEF
:10310000002010BD10B505210023C0F86C121A462E
:10311000194600F05FFA002010BD10B50223C2610D
:10312000C0F86C32026213460A46002100F0E9FA48
:10313000002010BD10B504210023C0F86C121A46FF
:10314000194600F0DEFA002010BD000010B50A4656
:10315000024903A000F0E2F8004810BD6C0A00200C
:1031600043444320436F6E66696700001220088065
:10317000004870472000002010B50A46024903A00D
:1031800000F0CCF8004810BD6C0A002043444320F6
:10319000496E7465726661636500000004200880F2
:1031A000004870471C00002010B50A46024903A0E1
:1031B00000F0B4F8004810BD6C0A002053544D696B
:1031C00063726F656C656374726F6E696373000020
:1031D00010B50A46024903A000F0A0F8004810BD4F
:1031E0006C0A002053544D33322056697274756155
:1031F0006C20436F6D506F727400000010B51A2080
:1032000008800A480168001D0468001D006808184D
:1032100009D008220649FFF701FA054904221031B6
:103220002046FFF7FBF90248801E10BD107AFF1FF1
:1032300036000020F8B5044648880D46010A0829E2
:103240004BD2DFE801F04A0409174A4A4048D4F853
:103250008812207C0A6832E0207C02260028D4F8FC
:103260008C0205D0C16A684688470146467041E035
:10327000816AF8E7C0B206282FD2DFE800F0030821
:103280000D12171CD4F88812207C4A6817E0D4F875
:103290008812207C8A6812E0D4F88812207CCA68E0
:1032A0000DE0D4F88812207C0A6908E0D4F888126E
:1032B000207C4A6903E0D4F88812207C8A69694638
:1032C0009047014616E0207C38B9D4F88C02416B57
:1032D00068468847F5E7207C20B129462046FFF75D
:1032E000F7FEF8BDD4F88C02016B684688470146AA
:1032F00007204870BDF8000048B1EA8852B1824208
:1033000000D90246ADF800202046FFF706FFE88806
:103310000028E6D12046FFF70DFFF8BD70B5002369
:1033200000281ED00446002502E06D1CEDB2641C8E
:103330002678002EF9D1022404EB4504148012787B
:10334000CA545B1C0322CA5400245B1C06E0CA5406
:103350005B1CDAB28C54521CD3B2401C0278002A97
:10336000F5D170BD01004FF0000004D0012901D05B
:10337000022901D0022070470120704710B580B1AA
:10338000D0F88C3213B10023C0F88C3209B1C0F8E8
:103390008812012180F87412027000F0CBF800202E
:1033A00010BD022010BD10B5D0F89802FDF7CEFF79
:1033B000BDE81040FFF7D6BF10B5D0F89802FDF772
:1033C0009FFFBDE81040FFF7CDBF2DE9F041174644
:1033D000044651B1D4F88C0242691AB194F87402CF
:1033E000032851D00220BDE8F081D4F86C320025CA
:1033F00004F11400022B03D0042B3AD0C3B33CE0F9
:10340000D0E903639E4207D9F11AC1608AB23946F6
:103410002046FFF755FE12E08068B0FBF3F103FB96
:10342000110199B9984211D3D4F8701288420DD283
:10343000002211462046FFF743FEC4F870520023D5
:103440001A461946204600F0C5F816E0D4F88C025A
:10345000C16829B194F87402032801D12046884735
:103460008021204600F032F92046FFF74BFE04E0B1
:10347000FFE78021204600F029F994F8780201281E
:1034800004D184F8785201E0204690470020AAE752
:1034900070B51546044649B1D4F88C0282691AB158
:1034A00094F87402032830D0022070BDD4F86C1256
:1034B00004F5A070032902D005291ED027E0D0E929
:1034C00003218A420BD9531AC3600846834200D3B2
:1034D00003469AB229462046FFF7EAFD17E0D4F8E2
:1034E0008C02016929B194F87402032801D12046A5
:1034F00088472046FFF71EFE09E000200146C4F879
:103500006C02204600F0E2F801E0204690470020DF
:1035100070BD0020704710B5012180F87412D0F8FA
:103520008C22017952689047002010BDD0F8980293
:10353000FDF73ABF10B5017841BB15490222C1F829
:103540000404C0F898124FF0A040086004204860BE
:103550000020C1E90320C1E9062008620122486277
:10356000C1E90B200846FEF711FA08B1FDF776FA1B
:1035700080210748FDF783FE402200210448FDF723
:1035800082FE802201210248FDF77DFE002010BD51
:10359000640600200A0601F07F01D0F89802C1EB12
:1035A000C10100EB810002D590F83E00704790F811
:1035B000FE017047002070470020704710B51C4680
:1035C0001346D0F898022246FDF7F7FEBDE81040FA
:1035D000FFF7C8BE10B5D0F89802FDF71EFFBDE892
:1035E0001040FFF7BFBE70B50022044640231146CD
:1035F000FFF7E4FF40260125C4F85061334600225E
:1036000080212046C4F84451FFF7D8FF6662A561C7
:1036100084F874520020C4F86C026060C4F87C0224
:10362000D4F8900228B1D4F88C02002142682046D8
:103630009047002070BD90F8751280F87412002039
:10364000704710B590F87412032904D1D0F88C1289
:10365000C96901B18847002010BD0174002070477E
:1036600010B5D0F89802FEF76DFABDE81040FFF7EC
:1036700079BE70B5044600F52070054600F04AF8A2
:103680000120C4F86C02B4F88602C4F8700294F801
:10369000800210F01F010AD001290DD0022910D09C
:1036A00000F08001204600F011F8002070BD29468E
:1036B000204600F09EF8F8E72946204600F0CAF9B7
:1036C000F3E72946204600F01DF9EEE710B5D0F8E3
:1036D0009802FDF7C6FEBDE81040FFF743BE10B5E7
:1036E000D0F89802FEF749FABDE81040FFF73ABE5D
:1036F00090F8741280F87512042180F8741200207A
:10370000704710B5D0F89802FDF7E5FEBDE810400F
:10371000FFF728BE0A7802704A7842708A78CB7820
:1037200002EB032242800A794B7902EB032282806A
:103730008A79C97902EB0121C180704702460020D5
:1037400011B1C2F88C1270470220704710B5D0F842
:103750008C2202241AB11268904700B90024204636
:1037600010BD000070B50E461E4D897804462970C4
:10377000012931D894F8740202280BD003280FD005
:1037800031462046FFF7A4FC29782046BDE870406A
:10379000FFF787BCD9B10320616084F8740209E0A7
:1037A00071B16068884212D0C1B22046FFF779FC3F
:1037B000297861602046FFF7C9FF02280CD006E097
:1037C000022084F8740220466160FFF76AFC2046FC
:1037D000BDE87040FFF7AEBC31462046BDE8704002
:1037E000FFF776BC7000002010B5FFF778FF0020CF
:1037F00010BD2DE9F0410A78002612F0600208D0D1
:10380000202A01D0402A70D1D0F88C2292689047AB
:103810006DE04B78002201250A2B66D2DFE803F029
:10382000405D6557650805652C29FFF703FD5EE0DF
:1038300004468888D8B9C888C8B94888802816D26C
:1038400000F07F0794F87402032810D084F8767291
:1038500039462046FFF704FF2046FFF76BFC1FB1F7
:10386000022084F8740242E084F874523FE020465B
:103870003BE0FFF777FF3AE0CB88012B35D190F89A
:103880007432012B04D0022B02D0032B2DD104E083
:103890008260012200F1080116E00122011D13E0FF
:1038A00090F87422012A03D0022A01D0032A1CD1E5
:1038B000CA88022A19D1C560D0F87C1209B1032147
:1038C000C160022200F10C01FFF727FC0FE04988DC
:1038D00001290CD1C0F87C5211E090F87432012B10
:1038E00008D0022B06D0032B04D0FFF7F1FB3046A3
:1038F000BDE8F08149880129F9D1C0F87C22FFF7A1
:1039000019FCF4E72DE9F0410A4604461078002737
:10391000097910F060030AD0202B01D0402B50D140
:10392000D4F88C0211468368204698478FE0C0F394
:103930004110012806D05078D0B301282AD003289E
:103940003FD107E0D4F88C02114683682046BDE8D9
:10395000F041184794F87402022802D0032872D16B
:103960000AE071B380296ED02046FFF7AFFE8021B8
:103970002046FFF7ABFE6AE0508838B931B18029A4
:1039800004D0D08810B92046FFF7A0FE2046FFF7EC
:10399000D1FB5CE094F874020228E2D0032852D1F3
:1039A000508898BB4806F1D02046FFF7FCFCEDE7B5
:1039B000FFE794F874020026022803D0032842D1BE
:1039C00012E040E009B180293DD1080601F07F00F6
:1039D00000EB800004EB800101D5143101E001F51A
:1039E000A07102220E602AE0080601F00F0000EB31
:1039F000800004EB80000AD5806920B301F07F00CD
:103A000000EB800004EB800514350BE01FE0D0F8DC
:103A10004401C0B101F07F0000EB800004EB8005A1
:103A200005F5A07541B1802906D02046FFF7B2FD0B
:103A300010B10120286000E02E60022229462046B5
:103A4000FFF76BFB03E011462046FFF741FB3846CA
:103A5000BDE8F08170B5054608780C4610F06000AE
:103A600003D0202801D0402816D195F874020128EF
:103A700003D0022801D003280ED1207901280BD8C9
:103A8000D5F88C02826828469047E188014306D128
:103A90002846FFF74FFB02E02846FFF719FB0020FE
:103AA00070BD000070B50A78012302F00F054E7852
:103AB000AB401B4CD0F81C58012E17D045EA0343ED
:103AC000C0F81C3800EB4210D0F8002B12040BD4C5
:103AD000D0F8002B0B89C978C3F30A031A4344EAD0
:103AE00081410A43C0F8002B002070BD9BB21D43EA
:103AF000C0F81C5800EB4210D0F800391B04F3D476
:103B0000D0F800390D89C978C5F30A0589042B431B
:103B100041EA82510B432343C0F80039E4E7000037
:103B200000800010D0F800196FF30A01C0F80019E6
:103B3000D0F80818C1F34101022905D1D0F80019C5
:103B400041F00301C0F80019D0F8041841F4807165
:103B5000C0F804180020704770B5044606990A9E04
:103B6000049D0D98012916D0E06840F04000E06007
:103B7000204600F02BF8A16B1EB321F48031A16325
:103B8000012D07D1A16841F00601A160A16841F0B3
:103B90002001A16070BDA16B21F48031A163E168B7
:103BA000094A1140E160E16821F44011E160012817
:103BB00003D1E06840F48010E060204600F006F891
:103BC000DEE741F48031DAE7BFFFBDFF01220C4997
:103BD00002E0521C8A420BD80369002BF9DA026911
:103BE00042F001020261012204E0521C8A4201D922
:103BF000032070470369DB07F7D1002070470000FE
:103C0000400D030030B50B784D78012203F00F040E
:103C100002FA04F4012DD0F83C5817D025EA0444E8
:103C2000C0F83C48D0F81C48097801F00F018A40E0
:103C300024EA0241C0F81C1800EB4310D0F8001B26
:103C40000E4A1140C0F8001B002030BDA4B2A543AD
:103C5000C0F83C58D0F81C48097801F00F018A40A0
:103C600091B28C43C0F81C4800EB4310D0F8001907
:103C7000034A1140C0F80019E6E700000078F3EFAE
:103C8000007833EC10B5D0F8041821F00201C0F828
:103C900004180320FCF7E4FE002010BD10B5D0F896
:103CA000041841F00201C0F804180320FCF7D8FE04
:103CB000002010BD2DE9F04F0025DDE90BCB0E46AD
:103CC0000446DDF84090099F2846294604EB80020F
:103CD000C2F80411401C0F28F8D3B9F1000F204698
:103CE00018D0006820F400122260A06B40F400227B
:103CF000A26308468846C4F8000ED4F8001820468F
:103D0000C4F80018BCF1010F10D0D0F8001841F031
:103D1000030110E0806B40F40012A263A06B20F45A
:103D20000022A263A06B20F48022E1E7D0F8001803
:103D30000BB141F00101C0F80018102100F0A0FA09
:103D400000B10125204600F08BFA00B10125404664
:103D5000C4F81088C4F81488C4F81C8800214FF0F7
:103D600000634FF090484FF67F3A14E004EB4112A5
:103D7000D2F800C9BCF1000F06DA11B1C2F800890F
:103D800004E0C4F8003901E0C2F80009C2F81009E3
:103D9000C2F808A9491C8E42E8D8002115E000BFEE
:103DA00004EB4112D2F800CBBCF1000F06DA11B1DE
:103DB000C2F8008B04E0C4F8003B01E0C2F8000B3D
:103DC000C2F8100BC2F808AB491C8E42E8D8D4F8F0
:103DD000101821F480722146C4F81028012F08D150
:103DE000134AC1F83028D1F83018124A1143C4F8E8
:103DF0003018A0616FF0804060611FB9A06940F089
:103E00001000A061A0690C490843A061BBF1000F3C
:103E100003D0A06940F00800A061B9F1010F03D1FF
:103E2000A06906490843A0612846BDE8F08F00005C
:103E3000000180000300010000383C8004000040C5
:103E4000816821F0010181600020704770B50D7814
:103E50004E78434CEBB200EB4313012E1FD0D3F846
:103E6000100B6FF31200C3F8100BD3F8100B2040A7
:103E7000C3F8100B486908B188684861D3F8100B83
:103E800040F40020C3F8100BD3F8100B8C68C4F377
:103E900012042043C3F8100B012A55D058E04E6994
:103EA000002ED3F8106932D06FF31206C3F81069F0
:103EB000D3F810692640C3F810694E698C68A64291
:103EC00000D94C61D3F8104944F40024C3F81049D8
:103ED000D3F810494E69C6F312063443C3F81049AB
:103EE000012A22D000EB4512D2F8003943F00443F6
:103EF000C2F800394A6932B3D0F83428097801F0A1
:103F00000F03012199400A43C0F8342826E02640D7
:103F1000C3F81069D3F8104944F40024C3F81049D9
:103F2000D3F810496FF31204D8E7096919B100EB0F
:103F30004512C2F8141900EB4510D0F8001941F0F1
:103F40000441C0F8001909E0C86808B1C3F8140BAF
:103F5000D3F8000B40F00440C3F8000B002070BD04
:103F6000FFFF07E010B5036C134CA34203D9D0F850
:103F7000003B002B1EDB0023C0F8103BD0F8103BA9
:103F800043F40023C0F8103BD0F8103B43F0180373
:103F9000C0F8103BD0F8103B43F0C043C0F8103BD2
:103FA000012907D1C0F8142BD0F8001B41F0802163
:103FB000C0F8001B002010BD0A30544F4A780B781F
:103FC000012A00EB43100BD0D0F8002B22F4001292
:103FD000C0F8002BC978032914D0022912D017E0A9
:103FE000D0F8002922F40012C0F80029C97803296A
:103FF00001D002290CD1D0F8001941F08051C0F84D
:10400000001905E0D0F8001B41F08051C0F8001BFA
:10401000002070470A784B78D1B200EB4110012B99
:1040200012D0D0F8001B002906DB2AB1D0F8001B03
:1040300021F08041C0F8001BD0F8001B41F40011B2
:10404000C0F8001B00207047D0F80019002906DBDB
:104050002AB1D0F8001921F08041C0F80019D0F839
:10406000001941F40011C0F80019EBE7F8B50C781D
:104070004F78774DE3B26FF0604600EB4313012FAA
:1040800026D0D3F8104B6FF31204C3F8104BD3F8BB
:10409000104B2C40C3F8104B4C69002C74D08D6829
:1040A0002C44641EB4FBF5F4D3F8105BA4B206EA0A
:1040B000C4463543C3F8105BD3F8105B8E68664383
:1040C000C6F312042543C3F8105B012A71D0A6E0A1
:1040D0004F691FB3D3F810796FF31207C3F8107943
:1040E000D3F810792F40C3F810794F698D682F44A9
:1040F0007F1EB7FBF5F506EAC545D3F810693543D1
:10410000C3F81059D3F810594E69C6F31206354357
:10411000C3F81059CD78012D10D01BE0D3F81069E9
:104120002E40C3F81069D3F8105945F40025C3F8A0
:104130001059D3F810596FF3120509E0D3F810594C
:1041400025F0C045C3F81059D3F8105945F0005573
:10415000C3F81059012A18D000EB4413D3F80049D2
:1041600044F00444C3F80049CC78012C2FD04A69AC
:1041700062B3D0F83428097801F00F030121994087
:104180000A43C0F8342860E036E00A691AB100EB4F
:104190004413C3F81429C97801290FD1D0F808189D
:1041A000C90500EB4411D1F8002903D442F00052B4
:1041B00002E030E042F08052C1F8002900EB4410E8
:1041C000D0F8001941F00441C0F800193DE0D0F8E2
:1041D0000848E405D3F8004902D444F0005401E053
:1041E00044F08054C3F8004900928A8A93B20A7856
:1041F000C96800F03FF928E0D3F8104B8D68C5F38B
:1042000012052C43C3F8104BD3F8104B44F4002490
:10421000C3F8104B59E7CA680AB1C3F8142BC97820
:1042200001290CD1D0F80808C005D3F8000B02D43E
:1042300040F0005001E040F08050C3F8000BD3F88C
:10424000000B40F00440C3F8000B0020F8BD000054
:10425000FFFF07E0816841F00101816000207047A5
:10426000002110220261054A491C914201D9032014
:1042700070470369DB06F7D400207047400D030048
:104280000022202343EA811101610549521C8A4220
:1042900001D90320704703699B06F7D400207047BB
:1042A000400D0300D0F8080810F0060004D00228E2
:1042B00003D0062801D00F207047022070474069C4
:1042C00000F001007047D0F81818D0F81C0808401A
:1042D00080B27047D0F81818D0F81C080840000CBD
:1042E000704710B5D0F81038D0F8342801F00F041A
:1042F00000EB4110E24002F00102D0F8080943EA65
:10430000C212104010BD00EB4111D1F8081BD0F8CB
:104310001408084070474169806908407047D21C02
:1043200010B59308002200F5805002E00468521C8A
:1043300010C19A42FAD3084610BD10B5C26822F0E7
:10434000C042C260012902D029B1012010BDC1685C
:1043500041F0005102E0C16841F08041C16032206B
:10436000FCF77EFB002010BDD0F8002822F4FE628E
:10437000C0F80028D0F800284FF4FE6303EA0111CA
:104380000A43C0F80028002070470000022A3ED1EE
:10439000264A274B0A449A4201D20F2138E0254A87
:1043A000254B0A449A4201D20E2131E0234A244B84
:1043B0000A449A4201D20D212AE0224A224B0A44A1
:1043C0009A4201D20C2123E0204A214B0A449A420E
:1043D00001D20B211CE01F4A1F4B0A449A4201D212
:1043E0000A2115E01D4A1E4B0A449A420FD31D4A6A
:1043F0001D4B0A449A4201D2082109E01B4A11448C
:104400001B4A914201D2072102E0062100E0092166
:10441000C26822F47052C260C2684FF4705303EA5B
:1044200081210A43C260002070470000405327FFEB
:1044300000350C00401E1BFF40420F0000DC0BFF4C
:10444000804F1200808CF9FE20D6130060B6E5FE86
:1044500060E3160000D3CEFE40771B00C05BB3FEC6
:10446000C091210000CA91FE20753800E05459FE29
:10447000E09C410010B5029C64B9DB1C9C0800EB79
:104480000230002300F5805002E004C902605B1C8A
:10449000A342FAD3002010BDFEE700000FB4054B85
:1044A00010B503A9044A029801F0B6F910BC5DF8F2
:1044B00014FB0000E96000088401002003B40198A7
:1044C0004100009850EAC12018BF04204A0D18BFCF
:1044D00040F0010040F2FF72B2EB515F08BF40F0C4
:1044E0000200012808BF052002B070470907090E25
:1044F000002804DB00F1E02080F80014704700F091
:104500000F0000F1E02080F8141D7047000000004B
:1045100070B59B482DED020B2DED068B079D25F008
:104520000044A04218DC9748844202DC0AD1069875
:1045300040B19DED060BBDEC068B02B0BDE87040AE
:1045400001F04EB8002DCCBF9FED8F0B9FED900B6F
:10455000BDEC068B02B070BD8F48A04215DD8F48C0
:10456000A042D8BF4FF0FF3458DD9DED060B51EC53
:10457000100BFFF7A3FF042808BF01F065F89DEDBD
:10458000060BBDEC068B02B070BD9DED060B51EC29
:10459000100B01F09DFDCDE9060181489FED828B56
:1045A000A0423CDD8248A0421FDD00249FED82AB8B
:1045B0009DED060B53EC1A2B51EC100BFBF75CFE38
:1045C0009DED060B41EC190B53EC1A2B51EC100B23
:1045D000FBF7F9FE53EC182BFBF7EFFE53EC192B0E
:1045E000FBF763FFCDE9060149E09DED060B0124D1
:1045F00053EC182B51EC100BFBF73EFE9DED060B18
:1046000041EC190B53EC182B51EC100BFBF7D5FEBA
:1046100053EC192BFBF749FFCDE906012FE0684861
:10462000A0421FDD02249FED689B9DED060B53EC1D
:10463000192B51EC100BFBF7C6FE53EC182BFBF7B4
:104640001BFE9DED060B41EC180B53EC192B51ECA6
:10465000100BFBF7B2FE53EC182BFBF726FFCDE94E
:1046600006010CE09DED060B032453EC102B9FED8F
:10467000580B51EC100BFBF718FFCDE906019DED2F
:10468000060B53EC102B51EC100BFBF79CFE41EC8E
:10469000180B53EC182BFBF796FE41EC190B4E4808
:1046A0000621B0EE490AF0EE690A784400F001FFF5
:1046B00053EC182B51EC100BFBF785FE41EC180B5B
:1046C0004648B0EE490AF0EE690A0521784400F048
:1046D000F0FE53EC192B51EC100BFBF774FE41EC80
:1046E000100B51EC180B53EC102B002C0EDAFBF7CF
:1046F000C3FD9DED061B53EC112BFBF764FE9DEDF6
:10470000061B53EC112BFBF75BFE35E0FBF7B4FD0A
:104710009DED061B53EC112BFBF755FE41EC100BE6
:104720002F48784400EBC40090ED001B51EC100BB7
:1047300053EC112BFBF741FE9DED061B53EC112BA7
:10474000FBF73BFE41EC100B2648784400EBC4001D
:1047500090ED001B51EC100B53EC112BFBF730FECE
:1047600041EC100B002DA2BFBDEC068B02B070BD5A
:1047700051EC100B81F0004141EC100B01E70000FF
:10478000000010440000F07F182D4454FB21F93F35
:10479000182D4454FB21F9BF0000DC3F0000203EEF
:1047A0000000F33F00000000000000000000F03FA8
:1047B0000000E63F00000000000000000000004094
:1047C0000080034000000000000000000000F83FEF
:1047D000000000000000F0BF4A210000002100009E
:1047E0008A200000422000002DE9F04D2DED040B41
:1047F0002DED0E8B96B0DDE92550279CDDF890A0BD
:1048000025F0004624F00048BAF1000F14BF012142
:10481000002101EB4502FC4953184A1093422AD368
:10482000002814BF0123002303EB44030B44F74982
:104830008B4220D358EA00019FEDF59B76D0DFF83C
:10484000D8B35D4503D1BAF1000F05D188E0BAF1C4
:10485000000F08BF002100D0012101EB450111F537
:10486000001F08D8002814BF0121002101EB4401DA
:1048700011F5001F0BD99DED261B9DED240B16B0E5
:10488000BDEC0E8B04B0BDE8F04D00F0B3BE0027C8
:10489000002DBCBFE149884521DAE1498845A8BF20
:1048A00002271CDAC3451ADCDE4901EB2851142922
:1048B00008DDC1F1340220FA02F101FA02F282426B
:1048C0000DD108E058B9C1F1140228FA02F101FA39
:1048D00002F2424503D101F00101C1F1020756EA9B
:1048E0000A0124D1002C22DA002D18BF022F01D09A
:1048F000012F0AD0022000F0C7FE16B0BDEC0E8BCF
:1049000004B0BDE8F04D00F053BE022000F0BCFE44
:1049100000F04EFE51EC100B81F0004141EC100B09
:1049200016B0BDEC0E8B04B0BDE8F08D18E09FED25
:10493000BEAB9FEDBF8B002871D1B848804522D116
:1049400005F1804010F5801008BFBAF1000F07D0C4
:10495000B3450ADC002CA8BF9DED260BE0DA0DE084
:10496000B0EE490AF0EE690ADAE7002C06DA9DEDAE
:10497000260B51EC100B81F000416FE0AE487844FB
:1049800090ED000BCCE7D8454DD1002C48DA2EB184
:1049900086423AD1BAF1000F42D126E0BAF1000FB7
:1049A00013D0022000F070FE00F03EFE8DED020BF1
:1049B0009DED240B8DED000B10EE900A039961F331
:1049C0001E0003909DED020BAAE78DED02AB9DED5D
:1049D000240B1AEE901A10EE900A8DED000B61F385
:1049E0001E0003909DED020B9AE78DED028B9DED6D
:1049F000240B18EE901A10EE900A8DED000B61F367
:104A00001E0003909DED020B8AE709DA9DED240B51
:104A100051EC190B53EC102BFBF747FD1EE020E087
:104A20009DED240B7CE786421BDAB4F1804F0DD05C
:104A3000A4F10050B0F1FF5013D1002D11DB9DED1A
:104A4000240B51EC100B01F05DFE07E09DED240BF3
:104A500053EC102B51EC100B00F0C2BC41EC100BCE
:104A60005EE79DED240B51EC100B01F031FBBAF128
:104A7000000FCDE90E0142D19FED710B46B3A6F1B7
:104A8000E040B0F17F600CD05E4538D1002D00DAF7
:104A9000A7B3022F0CBF01204FF0FF30FBF7F3FE4E
:104AA000DCE7002D01DD002C0DDA002D01DD002CEE
:104AB0001FDB002D16DA002C14DB012F08BF9FED41
:104AC000620B3FF42DAFB0EE4A0AF0EE6A0A27E718
:104AD000022F18BF002D0CD0012F0AD1002DFFF698
:104AE0001FAF06E0002DB8BF002C08DA012F3FF4FD
:104AF00017AFB0EE480AF0EE680A11E71BE001209C
:104B000000EBE57050EA070115D0791EB0EE498A36
:104B1000F0EE698A084308BF9FED4D8B4E48002593
:104B2000804570DD4D494E48884514DDB0420DDBAF
:104B3000002C19DB2FE0012000F0A6FD16B0BDEC23
:104B40000E8B04B0BDE8F04D00F05EBDB34502DC55
:104B5000002C09DC1FE0864202DA002C1BDA03E09D
:104B60005E452BDD002C16DD022000F08DFD00F0EF
:104B70005BFD8DED020B53EC1A2B51EC180BFBF780
:104B800022FCCDE900010399019861F31E00039016
:104B90009DED020BC4E6022000F076FD00F054FD0E
:104BA00010EE901A18EE900A8DED020B8DED008B31
:104BB00061F31E0003909DED020BB1E69DED0E0B1F
:104BC00053EC192B51EC100BFBF7F7FB9FED260B69
:104BD000CDE9080153EC102B9DED080B51EC100BA7
:104BE000FBF7F1FB9FED221B53EC112BFBF7E8FBCE
:104BF0009DED081B53EC112BFBF7E5FB9FED1E1BF6
:104C000053EC112B3CE08CE0FFFF1F00FFFF0F0077
:104C1000000000000000F03F0000F03F0000F07FC7
:104C20000000404301FCFFFF000000000000F07F97
:104C300000000000000000002E1F00000000000027
:104C40000000000000000080000000000000F0FFF5
:104C5000000000000000F0BF0000E0410000F04351
:104C6000FFFFEF3F00000000000000000000D03F09
:104C7000555555555555D53F000000000000E03F03
:104C8000FBF79EFB9DED080B41EC1A0B53EC102B30
:104C900051EC100BFBF797FB53EC1A2BFBF793FB34
:104CA00041EC1A0B9FEDFE0B53EC102B9DED080B06
:104CB00051EC100BFBF787FB41EC1B0B9FEDFA0B44
:104CC00051EC1A0B53EC102BFBF77DFB41EC1A0B4C
:104CD0009FEDF70B53EC102B9DED080B51EC100BD7
:104CE000FBF771FB53EC1A2BFBF767FB41EC1A0B3C
:104CF00051EC1B0B53EC1A2BFBF7BEFA0690CDE9D7
:104D000006519DED060B53EC1B2B51EC100BFBF7E2
:104D100054FB53EC1A2BFBF753FB41EC100B00F048
:104D2000A1B90020B6F5801F0EDA9FEDE30B53EC1E
:104D3000102B9DED0E0B51EC100BFBF744FBCDE956
:104D40000E016FF034000E4600EB2650A0F2FF3744
:104D5000C6F31300DA4940F07F6646F040568842B9
:104D6000D8BF002408DDD7498142C8BF012403DC35
:104D70000024A6F580167F1CD348784400EBC400BD
:104D80000F9690ED00CB9DED0E0B53EC1C2B51ECD0
:104D9000100BFBF712FB9DED0E0B41EC1B0B53ECC4
:104DA0001C2B51EC100BFBF767FA41EC100B51EC8C
:104DB000190B53EC102BFBF778FB41EC1D0B51EC5E
:104DC0001B0B53EC1D2BFBF7FEFA41EC1A0BBF48F3
:104DD0008DED10AB7844109590ED000B4FF0005026
:104DE00040EA660000EB84408DED080B00F50020E2
:104DF00009909DED080B53EC1C2B51EC100BFBF7AD
:104E0000DCFA9DED0E1B53EC112BFBF7D9FA41ECAC
:104E1000100B53EC102B9DED100B51EC100BFBF70E
:104E2000D2FA9DED080B41EC1C0B53EC102B9DEDC1
:104E3000100B51EC100BFBF7C6FA53EC1B2BFBF7D6
:104E4000BFFA53EC1C2BFBF7B8FA53EC1D2BFBF706
:104E5000BAFA41EC1C0B53EC1A2B51EC1A0BFBF772
:104E6000B2FA41EC1B0B9A480621B0EE4B0AF0EE69
:104E70006B0A784400F01DFBB0EE401AF0EE601AA9
:104E8000B0EE41DAF0EE61DA53EC1B2B51EC1B0B68
:104E9000FBF799FA53EC1D2BFBF795FA9DED100BE0
:104EA00041EC1B0B53EC1A2B51EC100BFBF7E4F904
:104EB00053EC1C2BFBF787FA53EC1B2BFBF7DCF9AD
:104EC0009DED100B41EC1B0B53EC102B51EC100B18
:104ED000FBF779FA41EC1D0B9FED7FEB53EC1E2B9A
:104EE000FBF7CAF953EC1B2BFBF7C6F90890CDE989
:104EF00008519DED080B53EC1E2B51EC100BFBF7EA
:104F00005CFA53EC1D2BFBF758FA53EC1B2BFBF709
:104F100057FA9DED080B41EC1D0B53EC102B9DED4A
:104F2000100B51EC100BFBF74EFA41EC1B0B53EC42
:104F30001A2B51EC1D0BFBF746FA9DED080B41ECCB
:104F40001A0B53EC102B51EC1C0BFBF73CFA53ECF7
:104F50001A2BFBF791F941EC1A0B51EC1B0B53EC9C
:104F60001A2BFBF789F90C90CDE90C519DED0C0B38
:104F700053EC1B2B51EC100BFBF71FFA53EC1A2BC5
:104F8000FBF71EFA41EC1B0B9FED550B53EC102B5E
:104F90009DED0C0B51EC100BFBF715FA41EC1A0BC5
:104FA0009FED510B51EC1B0B53EC102BFBF70BFA45
:104FB00041EC1B0B9FED4E0B53EC102B9DED0C0B9E
:104FC00051EC100BFBF7FFF953EC1B2BFBF754F9DB
:104FD00041EC100B4848784400EBC40090ED001BF6
:104FE00051EC100B53EC112BFBF746F941EC1B0B6A
:104FF0003846FBF748FCCDE9080153EC1B2B51EC7C
:105000001A0BFBF739F941EC100B3C48784400EBE4
:10501000C40090ED00CB51EC100B53EC1C2BFBF7B4
:105020002BF99DED081B53EC112BFBF725F906908E
:10503000CDE906519DED080B53EC102B9DED060BB1
:1050400051EC100BFBF7B9F953EC1C2BFBF7B5F93E
:1050500053EC1A2BFBF7B1F953EC1B2BFBF7B0F910
:1050600041EC100B9DED261B53EC102B8DED001B1E
:1050700000959DED260B51EC100BFBF7A4F99DED6F
:10508000000B41EC1A0B53EC102B9DED260B51EC51
:10509000100BFBF792F99DED061B53EC112B2FE043
:1050A000000000604715F73FFE822B654715F73F6C
:1050B00044DF5DF80BAE543E0000000000004043AA
:1050C0008E9803007AB60B00AA1A0000D81A0000C6
:1050D000E21900000000000000000000000008408D
:1050E000000000E009C7EE3FFD033ADC09C7EE3FD0
:1050F000F5015B14E02F3EBE6E180000281800007A
:10510000FBF761F953EC1A2BFBF7B6F89DED060B94
:1051100041EC1A0B53EC102B9DED000B51EC100BD6
:10512000FBF751F9CDE90C019DED0C0B51EC1A0B7D
:1051300053EC102BFBF7A0F8CDE902010C46AA496D
:105140008C422FDB611A084318D19DED0C0B53ECF8
:10515000102B9DED020B51EC100BFBF72EF941ECDF
:105160001B0B9FEDA30B51EC1A0B53EC102BFBF711
:1051700083F853EC1B2BFBF7AFFB2DD2022000F082
:1051800083FA00F051FA10EE901A18EE900A8DEDA5
:10519000020B8DED008B61F31E0003909DED020B61
:1051A000FFF7BEBB944A24F00041914214D39349C7
:1051B000214408437FF4EFAC9DED0C0B53EC102B16
:1051C0009DED020B51EC100BFBF7F7F853EC1A2B8B
:1051D000FBF782FB7FF6DFAC24F000408849894A68
:1051E000002601EB205182422BDA481C4FF480113B
:1051F00021FA00F02044844AC0F30A517A44A1F213
:10520000FF3192ED000B814A8DED080BCA4020EA78
:105210000202C0F3130040F48010C1F1140120FA1F
:1052200001F60992002CB8BF76429DED080B53ECB5
:10523000102B9DED0C0B51EC100BFBF7BEF8CDE9DC
:105240000C019DED0C0B51EC1A0B53EC102BFBF7E2
:1052500013F89FED6F0B0890CDE9085153EC102B1C
:105260009DED080B51EC100BFBF7ADF841EC1B0B5F
:105270009FED690B53EC102B9DED080B51EC100BBF
:10528000FBF7A1F89DED0C0B41EC1C0B53EC102B24
:105290009DED080B51EC100BFBF78FF853EC1A2B1C
:1052A000FBF78EF89FED5E1B53EC112BFBF78BF891
:1052B00053EC1C2BFAF7E0FF41EC1A0B51EC1B0BE3
:1052C00053EC1A2BFAF7D8FFCDE902019DED020B42
:1052D00053EC1B2B51EC100BFBF76FF853EC1A2B14
:1052E000FBF76EF89DED020B41EC1A0B53EC102B03
:1052F00051EC100BFBF767F8CDE908014A489DED2A
:10530000080B0521784400F0D4F89DED081B51EC02
:10531000100B53EC112BFBF756F89DED021B53ECD1
:10532000112BFBF74DF8CDE906019DED020B53EC77
:105330001A2B51EC100BFBF746F853EC1A2BFAF72B
:105340009BFF9FED3B0B41EC1A0B53EC102B9DED9B
:10535000060B51EC100BFBF730F89DED060B41EC02
:105360001B0B53EC102B9DED020B51EC100BFBF7BC
:105370002AF853EC1B2BFBF798F853EC1A2BFBF78E
:105380001CF89DED021B53EC112BFBF716F853ECA8
:10539000192BFBF715F8CDE9020101EB06500115B9
:1053A0000029C8BF039015DC9DED020B324651EC7D
:1053B000100BFBF700FAFFF781F8042808BF00F094
:1053C00043F932469DED020B51EC100BFBF7F3F95C
:1053D000CDE902019DED020B51EC180B53EC102BA3
:1053E000FAF7F1FFFFF73ABB000090400000000021
:1053F000FE822B654715973C00CC904000346F3FF0
:1054000001FCFFFF0000E03FB0160000FFFF0F00AF
:1054100000000000432EE63F396CA80C615C20BE02
:10542000EF39FAFE422EE63F801500000000000032
:10543000000000000000004000B52DED048BB0EE30
:10544000409AF0EE609A83B051EC190BFBF7CAF961
:1054500041EC180B18EE100A18EE901A8DED008B27
:10546000002818BF0120084320F00040C0F17F60F1
:1054700000F1E040C00F14D019EE101A19EE900A96
:105480008DED009B002918BF0121084320F000404A
:10549000C0F17F6000F1E040C00F04BF012000F0C8
:1054A000F3F8B0EE480A03B0F0EE680ABDEC048BE6
:1054B00000BD70B504462DED028B4D1E00EBC500FE
:1054C000B0EE408AF0EE608A90ED000B35F00600F9
:1054D00017D053EC182B51EC100BFAF774FF41EC7A
:1054E000100B6D1E04EBC50090ED001B51EC100B72
:1054F00053EC112BFAF7C0FE41EC100B35F006000F
:10550000E7D1022D36D0042D1CD0062D1CBFBDECDA
:10551000028B70BD53EC182B51EC100BFAF753FFB4
:1055200094ED0A1B53EC112BFAF7A6FE53EC182B43
:10553000FAF749FF94ED081B53EC112BFAF79CFE88
:1055400041EC100B53EC182B51EC100BFAF73BFF0E
:1055500094ED061B53EC112BFAF78EFE53EC182B2F
:10556000FAF731FF94ED040B53EC102BFAF784FE9D
:1055700041EC100B53EC182B51EC100BFAF723FFF6
:1055800094ED021B53EC112BFAF776FE53EC182B1B
:10559000FAF719FF94ED001B53EC112BFAF76CFE90
:1055A000BDEC028B41EC100B70BD00000000000050
:1055B0009FED070B10B553EC102B9FED070B51EC33
:1055C000100BFAF772FF41EC100B10BD0000000049
:1055D0000000000000000000000000000000F03F9C
:1055E00010B553EC102B51EC100BFAF745FE41ECC3
:1055F000100B10BD10B553EC112B51EC100BFAF73A
:105600003BFE41EC100B10BD9FED050B10B553ECAC
:10561000102B51EC100BFAF748FF41EC100B10BDAA
:1056200000000000000000009FED050B10B553ECDA
:10563000102B51EC100BFAF7C6FE41EC100B10BD0D
:1056400000000000000000709FED050B10B553EC4A
:10565000102B51EC100BFAF7B6FE41EC100B10BDFD
:10566000000000000000001002E008C8121F08C17E
:10567000002AFAD170477047002001E001C1121FD3
:10568000002AFBD170470000014908607047000004
:10569000900100202DE9FF5F82B00021DDE9043098
:1056A000020DDDF840B0034318D044F61050A2F2CA
:1056B000FF3242431514119801281FD0A5EB0B00AF
:1056C000401C5FEA000A4FF000064E4FDFF83891A9
:1056D000B046504615D5CAF1000413E011980124D4
:1056E0004AA3012801D16FEA0B010298119AC0E97F
:1056F0000031C0E9024206B0BDE8F09FCBF10000E6
:10570000DFE704460021404A491842EB0450CDE946
:10571000001012E0E00707D032463B4640464946BB
:10572000FAF751FE8046894632463B4610461946F6
:10573000FAF749FE06460F466410002CEAD1DDE96F
:105740000401DDE90023BAF1000F06DAFAF73BFEA7
:1057500042464B46FAF737FE05E0FAF7A6FE424608
:105760004B46FAF7A2FE04460E460022284BFBF7F2
:10577000B3F803D84FF0FF30014607E00022254B75
:1057800020463146FAF778FDFBF78EF8102409E041
:10579000002C0ADB0A220023FAF712FD039B3032A9
:1057A0001A55641E50EA0102F2D1641C039AC4F136
:1057B00011031444119A012A03D0012208430DD188
:1057C0000AE0084304D000204FF0110B119072E75B
:1057D000A3EB0B056D1E0DE05B4504DD4FF00002F1
:1057E00005F1010504E003DA4FF00002A5F101051F
:1057F000002AECD002981199C0E90231C0E90045B5
:1058000079E70000000014400000F03F3000000085
:105810000000F0430000E03F2DE9FF4F95B09B46AC
:105820008946064600250FE2252877D10024274621
:10583000F84A0121059400E0044316F8013F203B9B
:1058400001FA03F01042F7D130782A2811D06FF016
:105850002F033078A0F13002092A16D8059A44F0B7
:10586000020402EB820203EB42021044761C059014
:10587000EFE759F8042B0592002A03DA504244F46A
:105880000054059044F00204761C30782E2816D17E
:1058900016F8010F44F004042A280DD06FF02F02EF
:1058A0003078A0F13003092B09D807EB870302EB0E
:1058B0004303C718761CF3E759F8047B761C30784D
:1058C0006C280FD006DC4C2817D068280DD06A2829
:1058D00014D104E0742810D07A280FD10DE044F4DC
:1058E00000140AE044F4801401E044F44014727897
:1058F000824202D104F58014761C761C307866282A
:105900000BD013DC582877D009DC002875D0452847
:10591000F6D04628F4D047281AD19DE118E0632834
:1059200035D0642879D0652812D195E1702873D0DC
:1059300008DC6728F1D069286FD06E280DD06F2859
:1059400006D1B5E073282CD0752875D0782874D08E
:105950005A46179990476D1C75E1C4F3025002280E
:1059600009D003280DD0D9F8001004280DD00D60FF
:1059700009F1040967E1D9F80010EA17C1E90052FA
:10598000F6E7D9F800100D80F2E70D70F0E719F88E
:10599000041B8DF8001000208DF80100EA4601205C
:1059A00003E059F804AB4FF0FF3061074FF00001FE
:1059B00002D40DE008F101018846B9420FDA8045B2
:1059C000F8DB1AF808100029F4D108E008F1010109
:1059D00088468142FADB1AF808100029F6D10598AA
:1059E0005B46A0EB080721463846179A00F094FA68
:1059F000284400EB080507E04DE029E10DE01AF826
:105A0000010B5A4617999047B8F10108F7D25B4647
:105A100021463846179A13E142E00A220092C4F365
:105A200002524FF0000A022A08D059F804CB032A88
:105A30004FEAEC710AD00DE029E02AE009F10701F4
:105A400021F00702F2E802C1914609E00FFA8CFC4E
:105A50004FEAEC71042A03D14FFA8CFC4FEAEC7147
:105A6000002907DA0A460021DCF1000C61EB020193
:105A70002D2202E0220504D52B228DF804200122DC
:105A800003E0E20701D02022F7E7904659E00A211F
:105A900002E010220DE010214FF0000A00910BE00F
:105AA00010224FF0000A44F004040827009203E09B
:105AB00008224FF0000A0092C4F30252022A05D0D5
:105AC00059F804CB0021032A08D009E009F10701A5
:105AD00021F00702F2E802C1914605E01FFA8CFCB2
