:020000040800F2
:10000000487D00209D0100087B3600085B2D00081C
:1000100079360008AD0A0008BD5400080000000051
:100020000000000000000000000000000938000887
:10003000A50B000800000000073800086138000820
:10004000B7010008B7010008B7010008B7010008B0
:10005000B7010008B7010008A90B0008B7010008A4
:10006000B7010008B7010008B7010008B701000890
:10007000B7010008B7010008B7010008B701000880
:10008000F50A0008B7010008B7010008B701000829
:10009000B7010008B7010008B7010008B701000860
:1000A000B7010008B7010008B7010008B701000850
:1000B000B7010008B7010008B7010008B701000840
:1000C000B7010008B7010008B7010008B701000830
:1000D000B7010008B7010008193E0008B701000881
:1000E000B7010008B7010008B7010008B701000810
:1000F000B7010008B7010008B7010008B701000800
:10010000B7010008B7010008B7010008B7010008EF
:10011000B7010008B7010008B7010008B7010008DF
:10012000B7010008B7010008B7010008B7010008CF
:10013000B7010008B7010008B7010008B7010008BF
:10014000B7010008B7010008B70100087D360008B4
:10015000B7010008B7010008B7010008B70100089F
:10016000B7010008B7010008B7010008B70100088F
:10017000B7010008B7010008B7010008000000003F
:10018000B7010008B7010008DFF80CD000F0BCFB95
:100190000048004731720008487D0020064880472B
:1001A00006480047FEE7FEE7FEE7FEE7FEE7FEE75C
:1001B000FEE7FEE7FEE7FEE7ED38000889010008EC
:1001C0002DE9F05F0546002092469B46884606468C
:1001D000814640241BE0284641464746224600F01F
:1001E00034FA53465A46C01A914110D31146184664
:1001F000224600F01BFA2D1A67EB01084F462246F3
:100200000120002100F012FA17EB00094E41201ED8
:10021000A4F10104DFDC484631462A464346BDE8E6
:10022000F09F40EA01039B0703D009E008C9121FB1
:1002300008C0042AFAD203E011F8013B00F8013BA0
:10024000521EF9D27047D2B201E000F8012B491ECC
:10025000FBD270470022F6E710B513460A46044663
:100260001946FFF7F0FF204610BD421C10F8011B95
:100270000029FBD1801A70472DE9FE4F804681EAA4
:100280000300C00F0C46009021F0004123F0004510
:10029000B8EB0200A94105D24046214690461C46D3
:1002A0000B46024623F00040104347D0270DC7F30A
:1002B0000A00C3F30A510290401A019040286BDAF9
:1002C000C3F3130040F4801B0098924620B1002332
:1002D000D2EB030A63EB0B0B01985946C0F14002C5
:1002E000504600F0A3F906460D4650465946019A7D
:1002F00000F0BBF910EB08006141002487EA1152BD
:1003000084EAE7731A4340D0009A62B3019A012A43
:100310004FEA075215DC001B61EB02014FF000426F
:1003200002EA0752CDE90042001C41F58011324635
:100330002B4600F0F2F903B0BDE8F08F40462146AD
:10034000F9E7001B61EB0201001C41F58013001866
:100350005B412018A2F5001747EB030140EAD57076
:10036000B6196D4111E06D084FEA360645EAC075D1
:100370004FEA0752001B61EB0201001C41F580119E
:1003800049084FEA30000019514132462B4603B06C
:10039000BDE8F04F00F0B2B9009801224000002300
:1003A000D0EB020263EBE073009821464FEAE07461
:1003B000B8EB000061EB0401E9E783F000435BE781
:1003C00081F0004158E72DE9FE4F81EA030404F073
:1003D000004421F0004100944FF0000B23F0004353
:1003E00050EA01045ED052EA03045BD0C3F30A541E
:1003F000C1F30A552C44A4F2F3340194A0FB025437
:10040000C1F3130141F48011C3F3130343F48013C8
:1004100001FB024400FB034E840A970A44EA81541C
:1004200047EA8357A4FB076802958D0A05FB0785F9
:100430004FEA932C04FB0C542705029D4FEA065803
:1004400047EA1637B5EB08056EEB070C870E920EE0
:1004500047EA811742EA8312A7FB0201B6EB0B01C0
:1004600064EB00042B0D43EA0C335E1844EB1C5084
:10047000DA465146E7FB0201C5F313044FEA0B339A
:1004800043EA14534FEA0432019C43EA0603A4F101
:100490000C040294009CCDE900B400F03EF903B0D6
:1004A000BDE8F08F00200146F9E72DE9F04D81EA23
:1004B000030404F0004B21F0004514464FF0000AFD
:1004C00023F0004150EA050220D054EA01021DD079
:1004D000C5F30A570246C5F31303C1F31300C1F372
:1004E0000A5640F4801543F48013A7EB0608101B4E
:1004F000D64608F2FD3873EB050002D308F1010877
:1005000001E092185B41B8F1000F03DA00200146C8
:10051000BDE8F08D00204FF48011064684460EE0C1
:10052000171B73EB050705D3121B63EB050306438B
:100530004CEA010C49084FEA300092185B4150EA3E
:100540000107EDD152EA030012D082EA040083EAE7
:100550000501084305D0101BAB4106D20122002340
:1005600006E000224FF0004302E06FF0010253105A
:100570001AEB06004CEB085110EB0A0041EB0B01A3
:10058000BDE8F04D00F0BAB80EB540F2334102912B
:100590000021CDE900110A460B4600F0BEF803B079
:1005A00000BD00F0004230F000400AD0C10D01F55E
:1005B0006071C0F3160042EA0151C20840071143BE
:1005C000704700200146704701F0004330B421F02D
:1005D000004150EA010206D00A0DA2F56072C1F393
:1005E0001301002A02DC30BC00207047440F44EAAB
:1005F000C104C100E01830BC00EBC25000F047B8A5
:1006000030B50B46014600202022012409E021FAE2
:1006100002F59D4205D303FA02F5491B04FA02F5DF
:100620002844151EA2F10102F1DC30BD202A04DBB2
:10063000203A00FA02F1002070479140C2F12003F5
:1006400020FA03F3194390407047202A04DB203A34
:1006500021FA02F00021704721FA02F3D040C2F1E2
:1006600020029140084319467047202A06DBCB1729
:10067000203A41FA02F043EAE07306E041FA02F35D
:10068000D040C2F12002914008431946704700292A
:10069000A8BF7047401C490008BF20F00100704708
:1006A00010B4B0FA80FC00FA0CF050EA010404BF68
:1006B00010BC704749B1CCF1200421FA04F411FABE
:1006C0000CF118BF012121430843A3EB0C01CB1D02
:1006D0004FEA00614FEA102042BF002010BC704773
:1006E00000EBC35010440029A4BF10BC7047401C4D
:1006F000490008BF20F0010010BC704710B5141E5F
:1007000073F1000408DA401C41F1000192185B41CA
:100710001A4301D120F0010010BD2DE9F04D9246A1
:100720009B4611B1B1FA81F202E0B0FA80F22032B8
:100730009046FFF77BFF04460F4640EA0A0041EA75
:100740000B0153465A46084313D0114653EA0100A1
:1007500019D0C8F140025046FFF777FF05460E4614
:10076000504659464246FFF761FF084305D0012035
:1007700004E020463946BDE8F08D0020054346EAF6
:10078000E0762C4337430A986305E40AA0EB08009F
:100790000022FD0A44EA47540A3002D500200146EF
:1007A000E9E7010510196941DDE9084500196941CA
:1007B000BDE8F04DA2E770B521F0004303430CD033
:1007C000C1F30A550024D5EB040564EB0403D617E6
:1007D000AD1AB34102DB0020014670BD201841EB89
:1007E000025170BD2DE9F04D00231A461B1A8A41B3
:1007F00003DB00200146BDE8F08DC1F30A52C1F3CE
:10080000130141F480154FF0000BD10702D10018FD
:100810006D41521E0027044640F2FF11384601EB9D
:10082000620A3E468046024600204FF48011FFF7E0
:100830000CFFC2197141BB1846EB0100B4EB030C6D
:1008400075EB000C04D3E41A65EB000517460E4661
:10085000241908F101006D4180463428E3DDF919BF
:1008600046EB0600091BA84103D24FF0FF321346A6
:1008700001E0002213461BEB070046EB0A51BDE8DE
:10088000F04DFFF73BBF0EB5C10F80EAE0700844A2
:10089000CA07002140F233438DE80E000A460B469A
:1008A000FFF73BFF03B000BDC1F30A52C1F31301D0
:1008B00040F2FF3341F480119A4202DA00200146EF
:1008C000704740F233439A42A2F2334202DC524272
:1008D000FFF7BBBEFFF7AABE30B5041E71F10004DE
:1008E00004DB4FF00044404264EB0101141E73F13D
:1008F000000405DB1C464FF00043524263EB040347
:10090000994208BF904230BD064C074D06E0E068B2
:1009100040F0010394E8070098471034AC42F6D346
:10092000FFF736FC607E0008807E000870B58C18EA
:1009300010F8015B15F0070301D110F8013B2A11F3
:1009400006D110F8012B03E010F8016B01F8016BE0
:100950005B1EF9D12B0705D40023521E0DD401F8DC
:10096000013BFAE710F8013BCB1A921C03E013F8A5
:10097000015B01F8015B521EF9D5A142D8D30020DA
:1009800070BD0000464910B54A6822F440324A6002
:100990004A6843681A434A6001684A6822F48072D0
:1009A0004A6001684A68036942EA03224A600168B2
:1009B0004A6822F040724A6001684A6883681A43B4
:1009C0004A6001688A6822F400628A6001688A6865
:1009D000C3681A438A60816A6FF07062D14201680D
:1009E0008A6822F070628A6001688A680CD0836A23
:1009F0001A438A6001688A6822F040528A6001685E
:100A00008A68C36A1A4301E022F040528A60016892
:100A10008A6822F002028A6001688A68037E42EADC
:100A200043028A6090F82010002901684A680FD0BC
:100A300042F400624A6001684A6822F460424A60F7
:100A400001684A68174C436A04EB43331A4301E0D8
:100A500022F400624A600168CA6A22F47002CA6223
:100A60000168CA6A838B104C04EB03531A43CA62B1
:100A700001688A6822F400728A6001688A6890F8C6
:100A8000303042EA43228A6001688A6822F4806238
:100A90008A6001688A68406942EA8020886010BDE7
:100AA0000023014000E0FFFF0000F0FFFEE7002010
:100AB000704700207047000010B500220449054827
:100AC00003F0A4FA0449034803F09AFA002010BD89
:100AD00048150020A4040020480D002010B5014650
:100AE000034803F08DFA024803F06EFA002010BDAF
:100AF000A4040020014800F077BA0000440400205C
:100B000001681823CAB2103AB2FBF3F2054B6FF337
:100B10000901032A9B5CC36500D9091D816508464C
:100B200070470000187D000810B5014600208B6951
:100B30008A6A4FF0C07453B1B3F5005F15D072B13B
:100B4000012A0CD0022A0AD0032A09D104E01AB1E2
:100B5000012A06D0022A03D1C96AC90100D50120A1
:100B600010BDC96AA142FAD010BD002AF7D0012AEF
:100B7000F2D0022AF3D0032AF3D010BD30B50468B6
:100B8000256825F480252560046863608368402B10
:100B9000036803D099600068C26030BD9A60006845
:100BA000C16030BD7047000070B5154D00242DEDBB
:100BB000028B9FED148A00BF15F8240006F054FF45
:100BC00015F8240006F0D8F900F088FCB0EE480AC9
:100BD000E1B2F0EE402AB0EE402AF0EE401AB0EE5C
:100BE000401AF0EE400A06F099FF641C042CE3DB87
:100BF000BDEC028B0120BDE8704000F07FBB00001F
:100C000008000020000000007047000078B50024B4
:100C1000009490F83C20012A19D0012280F83C2051
:100C20000A6807230568092A13D9EE680A3A02EB15
:100C3000420293409E43EE600B788A680A3B03EBC6
:100C400043039A400368DD682A43DA6010E002201B
:100C500078BD2E6902EB420293409E432E610B78D1
:100C60008A6803EB43039A4003681D692A431A61AB
:100C70004A681F23072A13D205686E6B521E02EBC7
:100C8000820293409E436E630B790A885B1E92B288
:100C900003EB83039A4003685D6B2A435A6327E0A2
:100CA00005680D2A12D22E6BD21F02EB82029340EE
:100CB0009E432E630B790A88DB1F92B203EB8303FA
:100CC0009A4003681D6B2A431A6311E0EE6A0D3ADD
:100CD00002EB820293409E43EE620B790A880D3B41
:100CE00092B203EB83039A400368DD6A2A43DA6217
:100CF000164B0568144A9D4206D10D68122D03D18A
:100D0000556845F48005556005689D4218D10B680B
:100D1000102B01D0112B13D1536843F400035360FF
:100D2000096810290CD10A490A4A0968B1FBF2F195
:100D300001EB8101490000E0491E00910029FBD12F
:100D400080F83C40002078BD002301400020014095
:100D50008400002040420F000068C06C704770B5EE
:100D600004004FF0000503D0206C002610B107E00E
:100D7000012070BD204600F01DF8666484F83C60D8
:100D8000206CC00610D4206C20F4885040F0020083
:100D900020642046FFF7F6FD6664206C20F0020018
:100DA00040F00100206400E0012584F83C60284602
:100DB00070BD000030B587B0044614216846FFF7C7
:100DC00049FA1849206888422AD117480025016845
:100DD00041F480710160006800F480700590124851
:100DE0001438016841F004010160016801F0040158
:100DF0000591016841F0020101600068032400F0E0
:100E00000200059002208DE831006946074800F095
:100E100081FA009469460648CDE9014500F07AFA66
:100E200007B030BD002001404438024000080240B5
:100E3000000402402DE9F041044600680D46816837
:100E40004FF0000749050BD58068C00508D5206C18
:100E500040F02000206484F83C700120BDE8F0815F
:100E600000F03CFB06460FE0681C0DD025B100F0F9
:100E700035FB801BA84207D9206C40F00400206499
:100E800084F83C700320E9E7206800688007EBD510
:100E900021686FF012000860206C40F4007020643C
:100EA0002068816811F0405F13D1217E89B9C16A41
:100EB00011F4700F02D0806840050AD4206C20F431
:100EC00080702064206CC00403D4206C40F00100CA
:100ED00020640020C2E7000018B50021009190F8BE
:100EE0003C20012A07D0012280F83C200268936848
:100EF000DB0702D011E0022018BD936843F0010324
:100F000093602A4A2A4B1268B2FBF3F202EB4202C8
:100F100000E0521E0092002AFBD102689368DB07B2
:100F200041D0036C40F20164A34343F48073036433
:100F300053685B0505D5036C23F4005343F48053D9
:100F40000364036CDB0404D5436C23F006034364A1
:100F500000E0416480F83C1016496FF022031360F2
:100F600049680068CA06144906D088421BD18168C6
:100F700011F0405F13D016E08842F8D00F4A90423B
:100F800003D1D1F80423D206F1D00D4A90420AD100
:100F9000D1F8041301F01F011029E8D303E08168A0
:100FA00041F080418160002018BD000084000020D5
:100FB00040420F0000230140002001400021014079
:100FC0000022014090F83510022903D080214165AC
:100FD00001207047052180F835100068016821F074
:100FE00001010160002070472DE9F84304464FF0ED
:100FF0000009CDF8009063484FF41651A56D0068C4
:10100000B0FBF1F72E6894F85C10082000FA01F1AB
:1010100031420FD021680A6852070BD50A6822F0C6
:1010200004020A6094F85C108840A860606D40F08B
:101030000100606594F85C104FF0010808FA01F0B7
:10104000304208D021684969090604D5A860606D5E
:1010500040F00200606594F85C1004208840304243
:1010600008D021680968890704D5A860606D40F040
:101070000400606594F85C1010208840304218D05D
:1010800021680968090714D5A86020680168490328
:1010900004D50068000308D5A16C07E00168C90504
:1010A00003D4016821F008010160216C09B12046D8
:1010B000884794F85C1020208840304231D0216865
:1010C0000968C9062DD5A86094F835000528206860
:1010D000016806D0490347D5006800031DD4616C40
:1010E0001CE021F0160101602068416921F08001B7
:1010F0004161206C08B9A06C20B12068016821F022
:101100000801016094F85C103F208840A86084F8D2
:10111000349084F83580216D1FE0E16B09B12046E1
:101120008847606D00282BD0606DC00714D0052063
:1011300084F835002068016821F001010160009801
:10114000401C0090B84203D820680068C007F6D160
:1011500084F8349084F83580E16C002910D001B017
:101160002046BDE8F04308470168C905D5D40168A9
:1011700021F01001016084F8349084F83580CCE7C8
:10118000BDE8F883840000202DE9F041044600F01A
:10119000A5F906465CB1002584F83450022084F895
:1011A00035002068016821F0010101600DE0012097
:1011B000BDE8F08100F092F9801B052805D92020B8
:1011C0006065032084F83500F2E720680068C007F6
:1011D000F0D12268116820480140D4E90103184386
:1011E000D4E903363343184363691843A3691843AA
:1011F000E3691843236A18430843616A042903D149
:10120000D4E90B1319430843106020684069666AEB
:1012100020F0070130460E43012704280CD1A06AB4
:101220000643E06A40B12046FFF77EFC20B1402033
:10123000606584F83570BAE7206846612046FFF79C
:101240005FFC94F85C203F2191408160656584F8E3
:1012500035700020ACE700003F8010F02DE9F04130
:101260000446866D90F83400002501280DD0012039
:1012700084F8340094F835700020012F07D084F8EA
:10128000340002252846BDE8F0810220FBE7022752
:1012900084F8357060652046FFF770FC94F85C10A8
:1012A0003F208840B0602068016841F0160101606D
:1012B0002068416941F080014161206C20B12068C3
:1012C000016841F0080101602068016841F00101F6
:1012D0000160D7E770B5044600F000F90546601CD0
:1012E00002D004480078044400F0F8F8401BA04203
:1012F000FAD370BD7800002070470000044910B593
:101300000A68024202D00860FFF7F6FF10BD000035
:10131000143C01402DE9F84FDFF87CB100224FF07A
:1013200001084FF0030A4FF00F090BF1040E00BF44
:101330000B6808FA02F42340A3426ED14D68022DD7
:1013400001D0122D0ED1D50800EB850CDCF8205011
:101350005607F70E09FA07F6B5430E69BE402E434D
:10136000CCF82060066855000F790AFA05FC07F0F2
:10137000030726EA0C06AF40374307604E68012E8C
:1013800005D0022E03D0112E01D0122E0ED1866868
:10139000CF6826EA0C06AF40374387604668A6430D
:1013A0000C79C4F30014944034434460C6688C68DC
:1013B00026EA0C06AC403443C4604C68E40065D5B2
:1013C000364C256845F480452560246822F00305E5
:1013D00004F480440094324C2E19D6F8084895073E
:1013E0002F0F09FA07F5AC432E4DA84201D1002575
:1013F00024E02D4DA84201D101251FE02B4DA8422C
:1014000001D102251AE02A4DA84201D1032515E099
:10141000284DA84202D1042510E037E0264DA8420D
:1014200001D105250AE0254DA84201D1062505E098
:10143000234DA84201D1072500E00825BD402543E2
:10144000C6F80858DBF800405D464E689C43F6033A
:1014500000D51C432C60DEF8004075464E689C4366
:10146000B60300D51C432C600B4D08352C684E6824
:101470009C43F60200D51C432C60074D0C352C68AC
:101480004E689C43B60200D51C432C60521C102AA7
:10149000FFF44EAFBDE8F88F003C014044380240F5
:1014A00000300140000002400004024000080240F9
:1014B000000C0240001002400014024000180240DC
:1014C000001C0240426931EA020200D10904816134
:1014D00070470AB1816170470904FBE701488068E1
:1014E000704700007800002070B504001BD094F80D
:1014F0003D00002520B984F83C50204600F034FA25
:10150000242084F83D002068016821F00101016079
:1015100001F050F84D4A6168914201D84C4900E011
:101520004C49884201D2012070BD4B492368B0FB71
:10153000F1F15E6826F03F060E435E6063689342F9
:1015400006D94FF4967359434FF47A73B1FBF3F114
:101550002368491C1E6A26F03F0631431962616800
:10156000914210D84900401EB0FBF1F2521CC2F368
:101570000B02042A01D2042022E0B0FBF1F0401C4F
:10158000C0F30B001CE0A368F3B301EBC10202EB54
:101590000116421EB2FBF6F2521C42F480421205C2
:1015A00049D093B301EBC10202EB0111401EB0FB25
:1015B000F1F0401CC0F30B0040F4804040F40040C8
:1015C0002168CA694CF6FF739A431043C861D4E995
:1015D0000701084321680A6822F0C002104308602E
:1015E000D4E9030101432068826848F2FF339A433B
:1015F00011438160D4E9050108432168CA6822F0DB
:10160000FF021043C86001E00EE016E020680168A8
:1016100041F0010101602564202084F83D0025632C
:1016200084F83E50002070BD01EB4106421EB2FB23
:10163000F6F2521CB3E70120C2E701EB4101401E64
:10164000B0FBF1F0401CC0F30B00B7E7A08601002F
:1016500080841E0000093D0040420F002DE9F84F34
:101660001F4690468A460446DDF82890FFF736FF6D
:10167000054694F83D00202875D1192301226C49B4
:101680002046009501F056FC0028F5D194F83C0066
:10169000012868D0012084F83C0020680168C9074F
:1016A00003D1016841F0010101602068016821F463
:1016B00000610160222084F83D00102084F83E0083
:1016C00000262664C4F824806785608D20855948EB
:1016D000E0622B464A465146204601F056FB002860
:1016E00078D1208D544F68B1012814D00228206889
:1016F000016816D041F48061016020684169806909
:10170000009087E02068416981690091016841F497
:10171000007101607EE02068016821F48061016051
:10172000F0E721F4806101602068016841F4006104
:10173000E2E7032848D801280AD0022814D04B46F3
:10174000002239462046009501F0F4FBD8BB27E083
:101750002A464946204601F06CFCA0BB206800697F
:10176000616A08704DE061E04B4600223946204630
:10177000009501F0DFFB30BB2068016841F4007187
:10178000016020680069616A0870606A401C6062DC
:10179000218D491E2185618D491E618521682EE0BC
:1017A0002068016821F48061016020680069616A35
:1017B0000870606A401C6062208D401E2085608D2C
:1017C000401E6085D0E705E02A464946204601F0E4
:1017D00030FC10B10120BDE8F88F20680069616A13
:1017E0000870606A401C6062218D491E2185618DF0
:1017F000491E618521684A69D24352070AD40969A2
:101800000170606A401C6062208D401E2085608DE2
:10181000401E6085208D00288BD1202084F83D005B
:1018200084F83E6084F83C600020D4E70220D2E7D0
:10183000020010000000FFFF040001002DE9F84F36
:101840001F4690468A460446DDF82890FFF746FE7C
:10185000054694F83D0020287FD1192301224049F4
:101860002046009501F066FB002876D194F83C00F4
:10187000012872D0012084F83C0020680168C90763
:1018800003D1016841F0010101602068016821F481
:1018900000610160212084F83D00102084F83E00A2
:1018A00000262664C4F824806785608D20852D4835
:1018B000E0622B464A465146204601F0D1FA90B9E3
:1018C000206841698069009036E02A4649462046F2
:1018D00001F0E2FB50B1206C042804D120680168BB
:1018E00041F4007101600120BDE8F88F606A216851
:1018F00000780861606A401C6062618D491E6185E4
:10190000218D491E89B2218522685369DB435B071B
:101910000BD451B100781061606A401C6062608D28
:10192000401E6085208D401E20852A46494620465F
:1019300001F0DAFA0028CED1208D0028C5D154F864
:101940003D0B016841F400710160202004F81E097C
:10195000E67766770020C7E7FFE70220C4E70000CC
:10196000020010000000FFFF10B586B004461421ED
:101970006846FEF76FFC13492068884220D1124860
:10198000016841F0020101600068694600F0020050
:101990000590C020009012200190012002900320A9
:1019A0000390042004900948FFF7B4FC0648103067
:1019B000016841F400110160006800F40010059016
:1019C00006B010BD00540040303802400004024010
:1019D00002488168027811448160704778000020D5
:1019E0000B4810B5016841F400710160016841F4D1
:1019F00080610160016841F480710160032000F0A2
:101A000071F8002000F006F800F024F8002010BD66
:101A1000003C024070B50D4D04464FF47A712878B1
:101A2000B1FBF0F00A490968B1FBF0F000F0A0FF4B
:101A300048B9102C07D200222146501E00F032F87F
:101A400000206C6070BD012070BD00007800002097
:101A5000840000200B4882B0016841F4804101609D
:101A6000006800F4804000900648001F016841F0C3
:101A700080510160006800F080500090052002B0A5
:101A800000F030B844380240002809DB00F01F02A3
:101A9000012191404009800000F1E020C0F80011D0
:101AA00070470000F0B40E4B1B680C46C3F30223D2
:101AB000C3F10705042D00D90425191D072901D2FA
:101AC000002300E0DB1E012606FA05F1491E214035
:101AD00099409E40761E16403143F0BC03F01CBD79
:101AE0000CED00E0064900F0070208684FF6FF031E
:101AF000184040EA0220034A104308607047000083
:101B00000CED00E00000FA0570470068416200201B
:101B10007047F0B50368586A39B19C6A4FF4827611
:101B200000EB144400204D1E0AE040EA0240986297
:101B30000FE006EB8007DF59401C04EB1744C0B2EE
:101B4000A842F6D344EA02404FF4807202EB8101CE
:101B500058500020F0BDD0F8040402F0ECBCC1EBFA
:101B6000C10200EB8202D0F80404926C02F03FBC88
:101B7000C1EBC10200EB8202D0F80404D2F80822C3
:101B800002F098BCD0F8040402F0D7BC70B504464B
:101B90000B0601F00F00C0EBC00104EB81014FF018
:101BA00001024FF0000503D581F83D203C3103E0F0
:101BB00081F8FD5101F5FE71087094F8BC0301280D
:101BC00008D084F8BC23206803F02EF884F8BC53B6
:101BD000002070BD022070BD70B5044601F00F00FA
:101BE0006268904201D9012070BD0B0601F00F011F
:101BF000C1EBC10104EB81014FF001024FF0000580
:101C000003D581F83D203C3103E081F8FD5101F519
:101C1000FE718D70087094F8BC03012808D084F818
:101C2000BC23206803F0DCF984F8BC53002070BDAD
:101C3000022070BD01F00F01C1EBC10100EB81007A
:101C4000D0F8140270472DE9F04104460F0601F068
:101C50000F00C0EBC00104EB81014FF001064FF013
:101C6000000503D581F83D603C3103E081F8FD516A
:101C700001F5FE7108708A60CB704A7802B1C880A5
:101C8000022B00D10D7194F8BC03012809D084F80F
:101C9000BC63206802F018FF284684F8BC53BDE8F6
:101CA000F0810220FBE770B50C4601F00F05C5EB93
:101CB000C50100EB8101C1F81032C1F808220023F0
:101CC000C1F8143281F8FD3181F8FC51036901F546
:101CD000FE71012B00D10A612207027C006803D04B
:101CE00003F0D6F9002070BD03F0C2F8FAE770B532
:101CF00004460D4601F00F006168884201D90120B9
:101D000070BD29064FF000064FF0010207D5C0EB69
:101D1000C00104EB810181F83D203C3107E0C5EBB7
:101D2000C50104EB810181F8FD6101F5FE718A7046
:101D3000087094F8BC03012807D084F8BC232068FD
:101D400003F07AF9280702D007E0022070BD217C59
:101D500004F57172206803F017F984F8BC63002061
:101D600070BD70B50C4601F00F05C5EBC50100EB69
:101D700081010B658A6400234B65012381F83D30A6
:101D800001F83C5F0369012B00D10A612207027C44
:101D9000006803D003F07CF9002070BD03F068F800
:101DA000FAE700002DE9FC5F05680446284603F0C9
:101DB00098FA00287ED1206803F0BFFA002879D075
:101DC000206803F0BAFA800704D52068416901F061
:101DD00002014161206803F0B0FA010304F571705B
:101DE0004FF0010A4FF0080B009075D500262068CF
:101DF00003F082FA0746DFF808946BE0F80767D033
:101E0000F1B2206803F091FA8046C00707D005EBD5
:101E10004611C1F808AB3146204601F035FC5FEAB7
:101E2000087032D52068016C00EB46100191D0F8A3
:101E3000081B2269012A019A0FD0F24B9A4214D151
:101E4000090403D54FF40041C0F8081B204600F0F8
:101E5000D3FA206901280FD013E04A4505D90904B7
:101E600003D54FF40041C0F8081B204600F0C4FA27
:101E700001984845EDD804E020680121009A03F05C
:101E800083F805EB4611C1F808BB5FEAC86004D5CA
:101E900005EB46111020C1F8080B5FEA88600ED5EB
:101EA0002069012804D120680121009A03F06CF810
:101EB000202100E0A1E105EB4610C0F8081B5FEA15
:101EC000884005D505EB46104FF40051C0F8081BBB
:101ED0007F08761C002F91D1206803F02EFA400372
:101EE0004FF000095FD5206803F0FFF90746002690
:101EF00057E0F80753D0F1B2206803F004FA8046A7
:101F0000C00726D006F00F020AFA02F0D5F83428EE
:101F10008243C5F8342805EB4610C0F808A92069AB
:101F2000012807D1C6EBC60004EB8000D0E91121DF
:101F300011448164F1B22046FFF711FE20690128A7
:101F400007D136B9206D20B920680121009A03F02D
:101F50001BF85FEA087003D505EB4611C1F808B914
:101F60005FEAC86004D505EB46111020C1F80809E6
:101F70005FEA486004D505EB46104021C0F8081917
:101F80005FEA887004D505EB46100221C0F80819F5
:101F90005FEA086003D53146204601F0E3FB7F0885
:101FA000761C002FA5D1206803F0C7F9002811DAAC
:101FB000D5F8040820F00100C5F8040894F8F403EB
:101FC00001282BD0204600F0FBF92068416901F080
:101FD00000414161206803F0B0F900050BD5D5F848
:101FE0000808C00702D0204600F02EFA2068416998
:101FF00001F400614161206803F09FF9C00461D5DC
:10200000D5F8040820F00101C5F804181021206853
:1020100003F048F900214FF67F321AE084F8F49378
:1020200000212046FFF770FDCFE700BF05EB411010
:10203000C0F80829D0F8003923F40013C0F800399B
:10204000C0F8082BD0F8003B23F40013C0F8003B85
:10205000491C60688842E9D8D5F81C0840F0011195
:10206000C5F81C18206B002828460DD0D0F884082D
:1020700040F00B00C5F88408D5F8440840F00B0187
:102080002846C5F844180DE0D0F8140842F22B0198
:102090000843C5F81408D5F8100840F00B0128468D
:1020A000C5F81018D0F8000820F4FE61C5F8001833
:1020B000217C2068009A02F067FF2068416901F4E2
:1020C00080514161206803F038F9800415D52068FB
:1020D00002F03AFD206803F0F7F8E06000F064FADF
:1020E0000146227B206803F063F9204600F052F994
:1020F0002068416901F400514161206803F01DF935
:10210000C00634D52068816921F0100181612F6AF1
:1021100007F00F00C0EBC00004EB8006C7F343409C
:1021200006F5FE76022802D0062811D01AE047F6FE
:10213000F070074216D0C7F30A1217462846F16816
:1021400003F0FFF8F0683844F060B069384408E004
:1021500008222846009903F0F4F8B069C7F30A1181
:102160000844B0612168886940F0100088612068E7
:1021700003F0E3F8000707D5204600F025F92168B1
:10218000486900F008004861206803F0D6F8C002F2
:1021900008D50021204600F037F82168486900F48E
:1021A00080104861206803F0C8F8800208D500213B
:1021B000204600F02DF82168486900F400104861BD
:1021C000206803F0BAF8400007D52046FFF7C3FCAB
:1021D0002068416901F080414161206803F0ADF859
:1021E00040070AD520684568680702D52046FFF7F2
:1021F000C9FC2068416829434160BDE8FC9F00009C
:102200000A30544F0A31544FD0F8040402F0E4B9B4
:10221000D0F8040402F0E2B92DE9F0418AB00400DC
:1022200005D094F8BD032668002520B108E0012000
:102230000AB0BDE8F08184F8BC53204600F05EF897
:10224000032084F8BD03F06BC00500D4256120682D
:1022500002F008FE04F11001282288466846FDF7C6
:10226000E0FF94E80F0002F089FC0226C8BB0021C1
:10227000206803F074F8002001270EE0C0EBC001D5
:1022800004EB810181F83D7001F83C0FC880CD70EE
:102290008D60CD60401CC0B24D6161688142EDD857
:1022A000002011E0C0EBC00104EB810181F8FD5179
:1022B00081F8FC0181F8FF51C1F80452C1F80852BD
:1022C000401CC0B2C1F8105261688142EAD828228D
:1022D00041466846FDF7A5FF94E80F0002F0FCFCBC
:1022E00010B184F8BD63A2E784F8385084F8BD7358
:1022F000206802F0E5FC00209AE7000030B587B0C6
:10230000044614216846FDF7A5FF2068B0F1A04FF0
:1023100039D11E480024016841F0010101600068C4
:102320001B4D00F0010005904FF40070CDE9000452
:10233000694628460294FEF7EDFF4FF4C050009026
:102340000220CDE90104032003900A20049069468D
:102350002846FEF7DFFF0D48001D016841F08001AF
:1023600001600A481430016841F48041016000684E
:10237000002200F48040059011464320FFF792FBB5
:102380004320FFF781FB07B030BD0000303802402A
:102390000000024070B50446C068012570B10228F3
:1023A00001D0FEF731FC2946D4F8040402F067F9A5
:1023B000D4F80404BDE8704002F027B90025F2E724
:1023C000D0F8040402F049B9D0F8040402F04BB983
:1023D00010B5044690F8BC0301280BD0012084F806
:1023E000BC0384F83810206802F0D0FF002084F885
:1023F000BC0310BD022010BDD0F8042400F571719B
:10240000104602F048B910B50446006894F8BC13B1
:10241000012906D0012184F8BC13A16A012902D048
:1024200008E0022010BDA169012903D0816B41F4AD
:1024300080318163206802F037FC206802F01CFFC5
:10244000002084F8BC0310BD10B50446D0F8040485
:1024500002F060F92068D0F8001E41F00101C0F8D8
:10246000001E206A002804D00248016841F00601DD
:10247000016010BD10ED00E02DE9F0470E460500AB
:1024800065D0DFF81481D8F80000F7B200F00F0033
:10249000B04207D288F80070D8F8000000F00F00B2
:1024A000B04254D128683D4C810712D5400703D56E
:1024B000206840F4E05020602878000703D52068A9
:1024C00040F4604020602068A96820F0F0000843D4
:1024D00020602878C0072DD0304968680839012865
:1024E00012D0022813D0032811D0096889070029C7
:1024F0002DDA216821F0030101432160FEF7EEFF90
:10250000814641F2883A0EE009688903EFE70968DD
:102510008901ECE7FEF7E2FFA0EB0901514502D982
:102520000320BDE8F0872068696800F00C00B0EB7C
:10253000810FEFD1D8F80010404601F00F01B142F1
:1025400007D90770006800F00F00B04201D00120E9
:10255000E7E72878400705D52068E96820F4E050CF
:10256000084320602878000706D52068296920F4F0
:10257000604040EAC100206000F03CF82168084A51
:10258000C1F30311515CC840064908600020FFF701
:1025900041FA0020C5E70000003C02400838024034
:1025A000207D00088400002001480068704700007A
:1025B000840000200448054900680968044AC1F302
:1025C0008221515CC84070478400002008380240D6
:1025D000307D00080448054900680968044AC1F3D1
:1025E0004231515CC84070478400002008380240E6
:1025F000307D0008154810B5006810F00C02144832
:1026000013D04110042A0FD0082A0ED10F4C241FDA
:102610002268236802F03F025B0207D52068C0F3FE
:102620008810A0FB010106E0084610BD2168C1F337
:102630008811A1FB00010023FDF7C2FD2168C1F351
:102640000141491C4900B0FBF1F010BD08380240BF
:102650000024F4002DE9F84F050076D02878DFF843
:10266000F8B2BE4CC00749D0DBF800105846C1F3A1
:102670008101012908D00068C0F3810002280AD135
:10268000201D0068400206D52068800336D56868A2
:102690000028E2D032E06868B0F5803F10D0B0F595
:1026A000A02F206810D020F480302060206820F413
:1026B000802020606868A0B1FEF710FF06460CE09D
:1026C000206840F48030F4E740F480202060F7E791
:1026D000FEF704FF801B642873D820688003F7D5B9
:1026E0000CE0FEF7FBFE064605E000BFFEF7F6FE37
:1026F000801B6428F0D820688003F7D42878DFF89E
:10270000608280074FF000093ED5DBF80010584684
:1027100011F00C0F09D00068C0F3810002280BD122
:102720008D48001F0068400206D42068800715D538
:10273000E868012809D111E0E868B8B10120C8F8BB
:102740000000FEF7CBFE064605E002E1FEF7C6FEFE
:10275000801B0228C0D820688007F7D52068296927
:1027600020F0F80040EAC10020600DE0C8F80090B9
:10277000FEF7B4FE064604E0FEF7B0FE801B02281A
:102780001FD820688007F7D42878000722D5724E1A
:10279000744869696C3671B101210160FEF79EFED3
:1027A000074604E0FEF79AFEC01B022809D83068ED
:1027B0008007F7D50EE0C0F80090FEF78FFE0746C1
:1027C00005E083E0FEF78AFEC01B02287ED8306851
:1027D0008007F7D42878400768D5DFF87CA1002768
:1027E0000AF1380ADAF80000C0000BD4DAF8001059
:1027F00041F08051CAF80010DAF80000012700F01B
:1028000080500090584E3068C00510D4306840F4B5
:1028100080703060FEF762FE009005E0FEF75EFE1D
:102820000099401A022851D83068C005F6D54A4EA2
:10283000A868683601280FD00528306810D020F02D
:1028400001003060306820F004003060A868B8B142
:10285000FEF744FE00900FE0306840F00100F4E71E
:1028600040F004003060F7E7FEF738FE0099411AA7
:1028700041F28830814264D830688007F4D50EE098
:10288000FEF72CFE009007E0FEF728FE0099411AA3
:1028900041F28830814254D830688007F4D42FB197
:1028A000DAF8001021F08051CAF80010A869C0B30E
:1028B000DBF80010C1F3810102294AD00228484602
:1028C00007D0C8F86000FEF709FE00E039E00546D1
:1028D0003AE04746C8F86000FEF700FE064604E00E
:1028E000FEF7FCFD801B02282BD820688001F7D45E
:1028F000D5E907010843A96A1C4A490802EB0141CE
:102900006A6A41EA8211084395F82C1040EA016195
:102910001148001F016001203866FEF7DFFD054603
:1029200005E014E0FEF7DAFD401B022809D8206814
:102930008001F7D50BE000BFFEF7D0FD401B022859
:1029400002D90320BDE8F88F20688001F4D400206C
:10295000F8E70120F6E7000008380240003802409E
:1029600000004742800E4742007000400000FFFF19
:1029700010B5401EB0F1807F01D3012010BD4FF093
:10298000E02460610F21601702F0C6FD0020A06105
:1029900007202061002010BD7047000070B502685C
:1029A00004461068D168536910F00F0F50D003F03F
:1029B000010501F4907635435DD0C20705D0CA0504
:1029C00003D5E26B42F00102E263420705D5DA0764
:1029D00003D0E26B42F00202E263820705D5DA0718
:1029E00003D0E26B42F00402E263020705D5DA0786
:1029F00003D0E26B42F00802E263E26B002A33D0BC
:102A0000800604D5880602D5204601F000F820682B
:102A10004069E16BC0F38010090700D428B3204659
:102A200000F0DEFF2068416949061AD5416921F0AE
:102A300040014161606BA0B11B490165606BFEF70D
:102A4000C1FA002810D0606B016DBDE870400847E6
:102A5000830610D58B060ED52046BDE8704000F0E9
:102A6000D6BF2046FFF798FF70BD2046FFF794FFC2
:102A70000020E06370BD030606D50B0604D5204692
:102A8000BDE8704001F064B94006F3D54806F1D5C1
:102A9000D168204621F04001D160202184F839100E
:102AA00000F05AF970BD00004139000870B504000B
:102AB00004D094F83900002510B106E0012070BD63
:102AC00084F83850204600F023F8242084F8390098
:102AD0002068C16821F40051C160204600F0E2FF87
:102AE0002068016921F4904101612068416921F069
:102AF0002A0141612068C16841F40051C160E56369
:102B0000202084F8390084F83A00002070BD0000CD
:102B100070B586B0064614216846FDF79BFB244934
:102B20003068884241D123480025016841F40031D2
:102B30000160006800F4003005901E4810380168FC
:102B400041F0010101600068694600F00100059054
:102B50000C2000900220019001200290032003909D
:102B6000072004901448FEF7D5FB154C134820604D
:102B70004FF00060C4E901054014C4E9035080101F
:102B80006561C4E90650256220466562FEF7FCFADD
:102B900008B1FEF739F87463012211462620A663B6
:102BA000FEF780FF2620FEF76FFF06B070BD000025
:102BB000004400404038024000000240886002406B
:102BC00044040020F8B5044690F83A0020283CD18F
:102BD000C1B3BAB394F83800012836D0012084F884
:102BE0003800A162A2850025E563222084F83A001E
:102BF000636B1748D863636B16481864636B164899
:102C0000D864606B134605650846666B216802460A
:102C10003046091DFEF722FB2068016841680091DB
:102C200084F83850C16841F48071C16020684169FE
:102C300041F0010141612068416941F04001416179
:102C40000020F8BDFFE70120FBE70220F9E70000C4
:102C50009B390008D7390008513900087047704780
:102C60002DE9F843044690F839001F4616460D46F4
:102C7000202850D1A5B19EB194F8380001284AD03F
:102C8000012084F838004FF00008C4F83C8021206F
:102C900084F83900FEF722FCA6848146E68426E00B
:102CA0000120BDE8F883E08C401EE084A0684B461C
:102CB000B0F5805F4FF000024FF080012046009792
:102CC00003D001F076F8E8B90DE001F072F8C8B968
:102CD00028882168C0F308004860206908B16D1C8D
:102CE00005E0AD1C03E0216815F8010B4860E08C9D
:102CF0000028D8D14B46002240212046009701F001
:102D000058F808B10320CCE7202084F8390084F873
:102D100038800020C5E70220C3E790F83930202B27
:102D200018D1A9B1A2B190F83830012B12D00162AC
:102D30008284C2840021C163212280F8392080F876
:102D400038100068C16841F08001C1600020704700
:102D500001207047022070477047FEE701684A690A
:102D6000D24352050FD46FF480624A61002140F8CB
:102D7000301F202242738173026942F00402026113
:102D8000017301207047002070472DE9F84F044679
:102D9000C06A1E4692460D4621680A6842F4806267
:102DA0000A60082807D0012805D010F5803F02D01E
:102DB000206B112804D12068016841F48071016002
:102DC0004FF001185346002241462046009600F07D
:102DD000B1F8F0BB206908F10109B0F5804F0FD0C0
:102DE0000620216800EAD51747F0F0000861334655
:102DF000524608F10701204600F0D0F848BB03E036
:102E0000E8B240F001001BE02168E8B208613346F7
:102E100052464946204600F0C1F8D0B920684169C1
:102E200081690091016841F480710160534600227C
:102E300041462046009600F07DF850B947F0F10079
:102E400021680861334652464946204600F0A6F8FC
:102E500000E001E0002800D00120BDE8F88F00006C
:102E6000F8B50446C06A1E460D461746082807D026
:102E7000012805D010F5803F02D0206B122804D124
:102E80002068016841F480710160134600224FF010
:102E900001112046009600F04DF808BB2069B0F5FE
:102EA000804F0ED00620216800EAD51040F0F000D7
:102EB000086133463A460B49204600F06FF878B96E
:102EC00002E005F0FE0000E0E8B221680861054973
:102ED00033463A46891F204600F060F8002800D0AB
:102EE0000120F8BD0800010070B516460D460446E5
:102EF0000DE02046FFF732FF08B1012070BD681CCD
:102F000005D0FEF7EBFA801BA84207D835B1206840
:102F10004069C0434007ECD4002070BD002044F855
:102F2000300F20216173A073216941F020012161DC
:102F30002073E2E72DE9F0471E4690460D46044611
:102F4000C1F30747DDF8209008E0701C06D0FEF7BB
:102F5000C5FAA0EB0900B0420FD876B12068012F66
:102F600018D0806925EA00000004000C14D000216C
:102F70004145EAD00020BDE8F087002044F8300F3A
:102F800020216173A073216941F020012161207328
:102F90000120F0E74069E5E70121E9E72DE9F04785
:102FA0009A4691460E46044600254FF02008C1F38C
:102FB000074725E020684069C043400514D42068D5
:102FC000016841F40071016021686FF4806048611C
:102FD000256384F83D8084F83E50206C40F0040066
:102FE000206484F83C501FE0B9F1FF3F08D0FEF7A1
:102FF00075FAA0EB0A0149450CD8B9F1000F09D0C8
:103000002068012F13D0806926EA00000004000C1C
:103010000BD0CFE744F8305F84F80D80A5732069AA
:1030200040F02000206125730120BDE8F087406951
:10303000EAE72DE9F041002590460E460446202798
:1030400017E04069C043C0060CD454F8301B6FF041
:103050001000486144F810596777A577206A20620C
:10306000257717E0FEF73AFAA0EB0800B04208D83F
:103070003EB120684169C9434906E2D40020BDE859
:10308000F08144F8305F6773A573206940F0200039
:10309000206125730120F2E770B516460D460446FF
:1030A0000DE02046FFF75AFE08B1012070BD681CF4
:1030B00005D0FEF713FA801BA84207D835B1206867
:1030C0004069C0430006ECD4002070BD002044F8E5
:1030D000300F20216173A073216941F0200121612B
:1030E0002073E2E7F0B500230A24302537261F4677
:1030F00011E000BFB4EB107F02D905EB107C01E0BA
:1031000006EB107C01F813C001EB430C00015B1CC3
:103110008CF80170DBB29342ECD3F0BD77B581B08F
:1031200015460E464FF47A7401AA0123D0210848AF
:103130000094FEF783FB1420FEF7CCF8ABB23246C6
:10314000D02103480094FEF789FA04B0002070BD36
:10315000B00300203EB5052A02DD6FF001003EBD40
:103160008DF80400002001AB03E00C5C1D18401C2E
:103170006C709042F9DB4FF47A70521C93B200905D
:1031800001AAD0210248FEF759FB00203EBD0000F5
:10319000B003002013B5C0B2012201A9FFF7DAFF86
:1031A0001CBD000010B503460020CA1701EB526495
:1031B00024F07F02891ACAB2E111002902DD00BFA2
:1031C00042F080021A5400F10100EEDC10BD000054
:1031D000401C802801DA401C7047B0F5804F01DAAE
:1031E000801C70470349884201DAC01C7047001DEB
:1031F00070470000FFFF1F002DE9F84307460090CD
:10320000884614460025104600F082F88146FFF7F4
:10321000DFFF404502DDA81EBDE8F8832E4631469B
:1032200066F307016846103104F01AFD494600981C
:10323000FFF7B8FF009908440090207A04281DD0B9
:103240002FA1684604F0F8FC0321684604F008FD4D
:10325000A07E66F3070560F34105E07E08B145F006
:103260000405680707D594F83D0060F3C40594F899
:103270003C0060F34515206C40B905E022A168468A
:1032800004F0DAFC0421E0E7A06C08B145F0800509
:10329000E06C08B9606D08B145F040052946684604
:1032A00004F0DEFC218B684604F0E0FC04F10C0124
:1032B00068460EC904F0E9FCE07E68B12434684633
:1032C00094E80E00243C04F0E0FC3034684694E8B6
:1032D0000E00303C04F0D9FC280605D504F140016D
:1032E00068460EC904F0D1FC680605D54C34684622
:1032F00094E80E0004F0C9FC0098C01B8CE70000A5
:103300004D514973647000004D5154540000000049
:1033100070B50446007A0025032802D0042802D0A4
:1033200002E00C2500E00A2504F10C0007C800F0BB
:103330007CF80544E07EAD1C78B1243494E80700A5
:10334000243C00F072F83034064694E80700303C24
:1033500000F06BF8304405442D1D206C08B9A16CB9
:1033600029B1D4E9111200F060F80544AD1CE06CFD
:1033700008B9616D29B1D4E9141200F056F805447A
:10338000AD1C284670BD2DE9FC5F1C46129ECDE9A0
:103390000060DDF838B09046DDF830A0DDE90F239D
:1033A000894607465946204600F030F80546FFF7A3
:1033B0000FFF484503DD6FF00100BDE8FC9F3021A1
:1033C00068F3C30164F342016AF3000101A804F049
:1033D00047FC29460198FFF7E5FE01990844019052
:1033E000DDE90F23594601A804F04FFC002C03DD52
:1033F00001A80D9904F03AFC324611990198FCF7A6
:1034000010FF019830440190C01BD6E770B50E46FE
:10341000114604461A463046049D00F006F828443A
:10342000801C002C00DD801C70BD10B510B1FCF7B5
:103430001CFF0146084610BD7FB5002420480094BB
:10344000019402941D490394016001254FF48031D9
:103450000561C0E90114057680F820401949C0E9EA
:103460000A140326C661C46080F830404461FDF749
:1034700076FC08B1FDF7C8FB0920CDE900056946D7
:1034800002940F48FDF7C2FB08B1FDF7BDFB082011
:1034900000900220019069460948FDF7B7FB08B18A
:1034A000FDF7B2FB0B20CDE9000669460448FDF7A5
:1034B000ADFB002801D0FDF7A7FB7FBD0020014038
:1034C000680300200100000F094808B5016841F4B5
:1034D000001101600068002200F400100090114605
:1034E0001020FEF7DFFABDE808401020FEF7CCBA46
:1034F00030380240F0B587B014216846FCF7AAFEC8
:1035000026480024016841F080010160016801F053
:1035100080010591016841F004010160016801F03A
:1035200004010591016841F001010160016801F0A9
:1035300001010591016841F002010160016801F09B
:1035400002010591016841F0080101600068144F13
:1035500000F008004FF470460590002231463846CE
:10356000FDF7B7FF01250F480095CDE90104694635
:103570000D48FDF7CFFE0096CDE901546946384667
:103580000394FDF7C7FE002201210620FEF78AFA08
:103590000620FEF779FA07B0F0BD0000303802408F
:1035A000000C024000001110000002400D4810B550
:1035B0000B4901600C49416000214FF48042816059
:1035C000C0E9031241618161C1610162FDF78CFFB5
:1035D000002803D0BDE81040FDF716BB10BD000069
:1035E00000540040B0030020A08601000C4810B534
:1035F0000A4901604FF461414160002181600C2261
:10360000C160C0E904128161C161FFF74FFA00286F
:1036100003D0BDE81040FDF7F7BA10BD00440040EC
:103620000404002010B500220F49104800F0B8FE35
:1036300008B1FDF7E9FA0E490C4801F091F808B11C
:10364000FDF7E2FA0B49094800F0D2FC08B1FDF79A
:10365000DBFA064801F0DAF8002803D0BDE8104094
:10366000FDF7D2BA10BD000018000020A40400200D
:103670006401002068000020FEE770470148FEF763
:1036800091BB0000400700202DE9F041044600688E
:103690000E46016C00EB4615D5F8080B2769202370
:1036A0004FF40042012F08D02C4FB9424FD10104F2
:1036B00049D500BFC5F8082B4DE0DFF8A4C05FEA8C
:1036C000007E04F5717711D5614503D9000401D559
:1036D000C5F8082B2046FEF78FFE3A4601212068E8
:1036E00001F052FC0820C5F8080B34E05FEA806E58
:1036F00002D5C5F8083B2EE010F0280F2BD161450C
:1037000001D90004D6D4C6EBC60004EB8000D5F87E
:10371000102BD0F80412C2F312028A1AC0F8142235
:10372000D0F808221144C0F80812F1B22046FEF782
:103730001FFA86B9D4F8100268B93A460121206808
:1037400001F022FC07E0800601D5C5F8083BF1B284
:103750002046FEF70DFA0020BDE8F0810A31544FF3
:103760000A30544F2DE9F84F0E46C1EBC60100EB6D
:10377000810481460568D4E914103C34884202D99A
:103780000120BDE8F88F081AA168814200D20846DE
:10379000C01C870805EB46181BE000BFA0EB010A20
:1037A000A068504500D282460AF10300870899F8C4
:1037B000100000901FFA8AF3F2B22846E16801F087
:1037C0006BFEE16801EB0A00E060A16901EB0A0011
:1037D000A061D8F8180980B2B84205D3D4E9050130
:1037E000814201D20028D9D1D4E90501884208D804
:1037F00006F00F0101208840D5F834188143C5F840
:1038000034180020BDE770477047000030B51349F9
:103810000446B9B00FA00860C8252046FCF725FD76
:10382000CDE905400D4800240DF1080C07C80094AF
:1038300001948CE8070023462246294607A8FFF793
:10384000A2FD81B207A804F037F9044814380470C7
:1038500039B030BD5465737400000000BC01002015
:10386000FEF7B6B830B593B030216846FCF7F2FCED
:1038700014210CA8FCF7EEFC1A480025016841F061
:1038800080510160006800F0805011901648016876
:1038900041F4804101600068022400F480401190EE
:1038A00001200090000401908001CDE9064008202D
:1038B00008904FF4A870CDE9090407200B906846E2
:1038C000FEF7C8FE0CA90F2081E831004FF4A0508C
:1038D0000F90E002109005210CA8FEF7CDFD13B06B
:1038E00030BD0000403802400070004010480168C0
:1038F00041F4700101600F48016841F0010101606D
:103900000C4A00210832116002680B4B1A40026019
:10391000031D0A4A1A60026822F4802202600548E8
:103920000C30016002495806803908607047000079
:1039300088ED00E000380240FFFFF6FE1030002462
:1039400010B5806B0021C185C184FFF725F810BD3B
:1039500070B5846B2068406994F83910C0F3C010CA
:103960000025212904D118B1E584204600F046F84D
:103970002068406994F83A10C0F38010222904D1DD
:1039800018B1E585204600F02BF8E06B40F0100000
:10399000E0632046FFF700F870BD10B50146806B6C
:1039A00009680968C90513D40021C1850168CA687E
:1039B00022F48072CA6001684A6922F001024A61F9
:1039C00001684A6922F040024A61202180F83A10D9
:1039D000FFF744F910BD10B5806BFFF740F910BD3B
:1039E0000168CA6822F49072CA6001684A6922F0CC
:1039F00001024A61202180F83A1070470168CA68C4
:103A000022F0C002CA60202180F83910704710B53A
:103A100090F83A10222901D0022010BD8168B1F53A
:103A2000805F11D00169002901681FD0496801F049
:103A30007F03816A4A1C82620B70C18D491E090492
:103A4000090CC18518D02BE00269816A002A02683E
:103A5000526805D0D2B20A80816A491C8162ECE7C3
:103A6000C2F308020A80816A891CF7E74A68816A02
:103A70004B1C83620A70E0E70168CA6822F02002EA
:103A8000CA600168CA6822F48072CA6001684A6923
:103A900022F001024A61202180F83A10FFF7DEF897
:103AA000002010BD2DE9F041044600680169E2687C
:103AB00021F44051114301612169A068E269084382
:103AC0006169114322680843D16849F20C63994344
:103AD0000143D16020684169A26921F4407111431A
:103AE0004161E2696425B2F5004F97489749226821
:103AF0004FF032083FD08A4201D082427CD1FEF79B
:103B000069FD00EBC00101EB001061688900B0FBAA
:103B1000F1F6FEF75FFD00EBC00101EB00106168FC
:103B20008900B0FBF1F0B0FBF5F06FF018014843ED
:103B300006EB800108EB0110B0FBF5F000F0F00699
:103B4000FEF748FD00EBC00101EB00106168890041
:103B5000B0FBF1F0B0FBF5F006EB0016FEF73AFD16
:103B600000EBC00101EB001061688900B0FBF1F7C8
:103B7000FEF730FDD2E08A4201D082423DD1FEF70D
:103B800029FD00EBC00101EB001061684900B0FBAA
:103B9000F1F0B0FBF5F00601FEF71CFD00EBC001F3
:103BA00001EB001061684900B0FBF1F7FEF712FD70
:103BB00000EBC00101EB001061684900B0FBF1F0BF
:103BC000B0FBF5F06FF01801484307EB800108EBFC
:103BD000C100B0FBF5F000F0F80006EB4006FEF780
:103BE000F9FC00EBC00101EB001061684900B0FB7B
:103BF000F1F7FEF7EFFC3CE055E0FEF7DBFC00EBF5
:103C0000C00101EB001061684900B0FBF1F0B0FBAE
:103C1000F5F00601FEF7CEFC00EBC00101EB001051
:103C200061684900B0FBF1F7FEF7C4FC00EBC0018E
:103C300001EB001061684900B0FBF1F0B0FBF5F05A
:103C40006FF01801484307EB800108EBC100B0FB9F
:103C5000F5F000F0F80006EB4006FEF7ABFC00EBD9
:103C6000C00101EB001061684900B0FBF1F7FEF7FD
:103C7000A1FC00EBC00101EB001061684900B0FB42
:103C8000F1F0B0FBF5F06FF01801484307EB80014D
:103C900008EBC100B0FBF5F000F0070021683044EC
:103CA0008860BDE8F081FEF785FC00EBC00101EB08
:103CB000001061688900B0FBF1F6FEF77BFC00EBB9
:103CC000C00101EB001061688900B0FBF1F0B0FBAE
:103CD000F5F06FF01801484306EB800108EB011086
:103CE000B0FBF5F000F0F006FEF764FC00EBC0015D
:103CF00001EB001061688900B0FBF1F0B0FBF5F05A
:103D000006EB0016FEF756FC00EBC00101EB0010BD
:103D100061688900B0FBF1F7FEF74CFC00EBC001D5
:103D200001EB001061688900B0FBF1F0B0FBF5F029
:103D30006FF01801484307EB800108EB0110B0FB5E
:103D4000F5F000F00F00A9E7001401400010014059
:103D500090F83910212901D0022070478168B1F50F
:103D6000805F016A0BD04A1C0262026809785160C8
:103D7000C18C491E0904090CC1840ED017E00988C2
:103D80000268C1F30801516001690029016A02D08B
:103D9000491C0162ECE7891CFBE70168CA6822F054
:103DA0008002CA600068C16841F04001C160002023
:103DB00070472DE9F041984617460E460446069D89
:103DC0001DE0681C1BD02DB1FDF788FBA0EB08009F
:103DD000A84214D92068C16821F4D071C16020685C
:103DE000416921F001014161202084F8390084F803
:103DF0003A00002084F838000320BDE8F0812068F4
:103E0000006836EA000004D00020B842D9D0002073
:103E1000F3E70120F9E700000148FEF7BFBD00000D
:103E2000040400202DE9F041D0F89832D0F8902217
:103E3000DAB101EB810400EB84040025E6694EB1A0
:103E4000C1EBC10703EB87035B6CB6FBF3F703FB26
:103E5000176323B1C2F814520020BDE8F08100239B
:103E60001A46E56100F05FFCF6E70220F5E770B561
:103E70000546D0F8904200F06BFBC4F80C02D5F870
:103E8000900248B1D5F89412D4F80402CA6804F537
:103E900003719047002070BD022070BD70B50446CC
:103EA0000026812100F09AFA002501212046E562D2
:103EB00000F094FA82212046C4F8585100F08EFA9E
:103EC0002564D4F8900248B1D4F8940204F524741F
:103ED00040688047206803F05BF92560304670BD7C
:103EE00010B5D0E9A44159B194F80002FF2807D0D9
:103EF0008B6894F8012221469847FF2084F800023D
:103F0000002010BD0A210180004870478C0000206D
:103F10004321018000487047DC00002043210180DC
:103F200000487047980000204321018000487047F6
:103F3000200100202DE9F04104460026007C4FF4CA
:103F40000077012590B3402302228121204600F012
:103F500047FB4023E56202220121204600F040FB9E
:103F60000823032282212046C4F8585100F038FB70
:103F70004FF40770256403F0EFFCC4F89002F8B129
:103F80000546D4F89402006880470020C5F8140262
:103F9000C5F81802207CD5F8042298B140230121ED
:103FA000204600F029FB3046BDE8F081FFE73B46A4
:103FB00002228121204600F013FB3B46E562CAE75E
:103FC0000126F0E73B46EAE710B5D0F8901269B158
:103FD000027C002AD1F8042205D04023012100F000
:103FE0000BFB002010BD4FF40073F7E7022010BD5B
:103FF00002460220002902D00020C2F89412704725
:10400000D0F89002C0F8041200207047D0F8900257
:10401000C0F81022C0F80812002070472DE9FC41BA
:104020000546D0F8907200208DF80000ADF804002D
:10403000064608780C4610F0600121D020293BD1BB
:10404000E288AAB10006607807D5D5F894128B688B
:1040500039469847E288394626E087F80002A07979
:1040600087F80102E2883946284600F04FF828E038
:10407000D5F89412607800228B682146984720E09A
:10408000607820B10A2809D00B2815D110E095F8E6
:104090007402032810D1022201A905E095F87402E8
:1040A000032809D101226946284600F049F808E0B2
:1040B00095F87402032804D02146284600F01BF826
:1040C00002263046BDE8FC8110B5D0F88C2252683B
:1040D0009047002010BD134610B50A46002100F09D
:1040E0008BFA002010BD134610B50A46002100F0DF
:1040F0001AFB002010BD10B50446802100F0F8FA2C
:104100002046BDE81040002100F0F2BA10B50323AC
:10411000C0F84821C0F86C32C0F84C2113460A465A
:10412000002100F069FA002010BD10B50521002320
:10413000C0F86C121A46194600F05EFA002010BD55
:1041400010B50223C261C0F86C32026213460A46FF
:10415000002100F0E8FA002010BD10B50421002372
:10416000C0F86C121A46194600F0DDFA002010BDA6
:1041700010B50A46024903A000F0E2F8004810BD5D
:10418000480B002043444320436F6E66696700007C
:1041900012200880004870473800002010B50A46F9
:1041A000024903A000F0CCF8004810BD480B0020E5
:1041B00043444320496E7465726661636500000084
:1041C00004200880004870473400002010B50A46DB
:1041D000024903A000F0B4F8004810BD480B0020CD
:1041E00053544D6963726F656C656374726F6E6969
:1041F0006373000010B50A46024903A000F0A0F85E
:10420000004810BD480B002053544D3332205669EE
:10421000727475616C20436F6D506F727400000092
:1042200010B51A2008800A480168001D0468001DA6
:104230000068081809D008220649FEF753FF05490F
:10424000042210312046FEF74DFF0248801E10BDAB
:10425000107AFF1F4E000020F8B5044648880D462E
:10426000010A08294BD2DFE801F04A0409174A4A3B
:104270004048D4F88812207C0A6832E0207C02266C
:104280000028D4F88C0205D0C16A684688470146E8
:10429000467041E0816AF8E7C0B206282FD2DFE815
:1042A00000F003080D12171CD4F88812207C4A680D
:1042B00017E0D4F88812207C8A6812E0D4F88812BB
:1042C000207CCA680DE0D4F88812207C0A6908E0D6
:1042D000D4F88812207C4A6903E0D4F88812207C44
:1042E0008A6969469047014616E0207C38B9D4F8BF
:1042F0008C02416B68468847F5E7207C20B129464F
:104300002046FFF7F8FEF8BDD4F88C02016B684632
:104310008847014607204870BDF8000048B1EA8888
:1043200052B1824200D90246ADF800202046FFF784
:1043300007FFE8880028E6D12046FFF70EFFF8BD0A
:1043400070B5002300281ED00446002502E06D1C35
:10435000EDB2641C2678002EF9D1022404EB45044A
:1043600014801278CA545B1C0322CA5400245B1CBC
:1043700006E0CA545B1CDAB28C54521CD3B2401C07
:104380000278002AF5D170BD01004FF0000004D082
:10439000012901D0022901D0022070470120704775
:1043A00010B580B1D0F88C3213B10023C0F88C3234
:1043B00009B1C0F88812012180F87412027000F06F
:1043C000CBF8002010BD022010BD10B5D0F8980227
:1043D000FDF702FCBDE81040FFF7D6BF10B5D0F8DE
:1043E0009802FDF7D3FBBDE81040FFF7CDBF2DE9E4
:1043F000F0411746044651B1D4F88C0242691AB113
:1044000094F87402032851D00220BDE8F081D4F85A
:104410006C32002504F11400022B03D0042B3AD097
:10442000C3B33CE0D0E903639E4207D9F11AC160EF
:104430008AB239462046FFF756FE12E08068B0FB8C
:10444000F3F103FB110199B9984211D3D4F870121A
:1044500088420DD2002211462046FFF744FEC4F8E0
:10446000705200231A461946204600F0C5F816E09F
:10447000D4F88C02C16829B194F87402032801D1E0
:10448000204688478021204600F032F92046FFF779
:104490004CFE04E0FFE78021204600F029F994F863
:1044A0007802012804D184F8785201E02046904730
:1044B0000020AAE770B51546044649B1D4F88C022D
:1044C00082691AB194F87402032830D0022070BDBA
:1044D000D4F86C1204F5A070032902D005291ED06F
:1044E00027E0D0E903218A420BD9531AC36008465A
:1044F000834200D303469AB229462046FFF7EBFDDC
:1045000017E0D4F88C02016929B194F874020328E9
:1045100001D1204688472046FFF71FFE09E0002012
:104520000146C4F86C02204600F0E2F801E02046A3
:104530009047002070BD0020704710B5012180F821
:104540007412D0F88C22017952689047002010BD77
:10455000D0F89802FDF76EBB10B5017841BB154944
:104560000222C1F80404C0F898124FF0A04008607D
:10457000042048600020C1E90320C1E90620086248
:1045800001224862C1E90B200846FDF745FE08B14B
:10459000FCF73AFB80210748FDF7B7FA40220021DB
:1045A0000448FDF7B6FA802201210248FDF7B1FA6E
:1045B000002010BD400700200A0601F07F01D0F85E
:1045C0009802C1EBC10100EB810002D590F83E00DA
:1045D000704790F8FE017047002070470020704738
:1045E00010B51C461346D0F898022246FDF72BFB67
:1045F000BDE81040FFF7C8BE10B5D0F89802FDF72F
:1046000052FBBDE81040FFF7BFBE70B50022044664
:1046100040231146FFF7E4FF40260125C4F850610E
:104620003346002280212046C4F84451FFF7D8FFCA
:104630006662A56184F874520020C4F86C02606060
:10464000C4F87C02D4F8900228B1D4F88C0200217E
:10465000426820469047002070BD90F8751280F89F
:1046600074120020704710B590F87412032904D119
:10467000D0F88C12C96901B18847002010BD0174BF
:104680000020704710B5D0F89802FDF7A1FEBDE8F4
:104690001040FFF779BE70B5044600F5207005465E
:1046A00000F04AF80120C4F86C02B4F88602C4F89D
:1046B000700294F8800210F01F010AD001290DD079
:1046C000022910D000F08001204600F011F80020EF
:1046D00070BD2946204600F09EF8F8E7294620469E
:1046E00000F0CAF9F3E72946204600F01DF9EEE78D
:1046F00010B5D0F89802FDF7FAFABDE81040FFF7C0
:1047000043BE10B5D0F89802FDF77DFEBDE810401D
:10471000FFF73ABE90F8741280F87512042180F801
:1047200074120020704710B5D0F89802FDF719FBFD
:10473000BDE81040FFF728BE0A7802704A78427040
:104740008A78CB7802EB032242800A794B7902EB1C
:10475000032282808A79C97902EB0121C1807047E6
:104760000246002011B1C2F88C1270470220704737
:1047700010B5D0F88C2202241AB11268904700B903
:104780000024204610BD000070B50E461E4D8978ED
:1047900004462970012931D894F8740202280BD0FC
:1047A00003280FD031462046FFF7A5FC2978204684
:1047B000BDE87040FFF788BCD9B10320616084F880
:1047C000740209E071B16068884212D0C1B220461B
:1047D000FFF77AFC297861602046FFF7C9FF0228BD
:1047E0000CD006E0022084F8740220466160FFF7D6
:1047F0006BFC2046BDE87040FFF7AFBC3146204659
:10480000BDE87040FFF777BC8800002010B5FFF7C7
:1048100078FF002010BD2DE9F0410A78002612F043
:10482000600208D0202A01D0402A70D1D0F88C2212
:10483000926890476DE04B78002201250A2B66D2E2
:10484000DFE803F0405D6557650805652C29FFF733
:1048500003FD5EE004468888D8B9C888C8B948888E
:10486000802816D200F07F0794F87402032810D035
:1048700084F8767239462046FFF704FF2046FFF79A
:104880006CFC1FB1022084F8740242E084F8745278
:104890003FE020463BE0FFF777FF3AE0CB88012B73
:1048A00035D190F87432012B04D0022B02D0032BA7
:1048B0002DD104E08260012200F1080116E00122FE
:1048C000011D13E090F87422012A03D0022A01D0BE
:1048D000032A1CD1CA88022A19D1C560D0F87C12DB
:1048E00009B10321C160022200F10C01FFF728FC8D
:1048F0000FE0498801290CD1C0F87C5211E090F8F2
:104900007432012B08D0022B06D0032B04D0FFF702
:10491000F2FB3046BDE8F08149880129F9D1C0F8A1
:104920007C22FFF71AFCF4E72DE9F0410A46044621
:1049300010780027097910F060030AD0202B01D0ED
:10494000402B50D1D4F88C021146836820469847FA
:104950008FE0C0F34110012806D05078D0B3012871
:104960002AD003283FD107E0D4F88C02114683688F
:104970002046BDE8F041184794F87402022802D09E
:10498000032872D10AE071B380296ED02046FFF768
:10499000AFFE80212046FFF7ABFE6AE0508838B9B1
:1049A00031B1802904D0D08810B92046FFF7A0FE8D
:1049B0002046FFF7D2FB5CE094F874020228E2D0B4
:1049C000032852D1508898BB4806F1D02046FFF703
:1049D000FCFCEDE7FFE794F874020026022803D000
:1049E000032842D112E040E009B180293DD10806F8
:1049F00001F07F0000EB800004EB800101D5143151
:104A000001E001F5A07102220E602AE0080601F023
:104A10000F0000EB800004EB80000AD5806920B312
:104A200001F07F0000EB800004EB800514350BE003
:104A30001FE0D0F84401C0B101F07F0000EB80001E
:104A400004EB800505F5A07541B1802906D020460C
:104A5000FFF7B2FD10B10120286000E02E600222B5
:104A600029462046FFF76CFB03E011462046FFF77E
:104A700042FB3846BDE8F08170B5054608780C4623
:104A800010F0600003D0202801D0402816D195F8FE
:104A90007402012803D0022801D003280ED1207906
:104AA00001280BD8D5F88C02826828469047E18807
:104AB000014306D12846FFF750FB02E02846FFF7E6
:104AC0001AFB002070BD000070B50A78012302F0C7
:104AD0000F054E78AB401B4CD0F81C58012E17D058
:104AE00045EA0343C0F81C3800EB4210D0F8002B15
:104AF00012040BD4D0F8002B0B89C978C3F30A0336
:104B00001A4344EA81410A43C0F8002B002070BDDB
:104B10009BB21D43C0F81C5800EB4210D0F800397E
:104B20001B04F3D4D0F800390D89C978C5F30A0500
:104B300089042B4341EA82510B432343C0F80039D7
:104B4000E4E7000000800010D0F800196FF30A01BC
:104B5000C0F80019D0F80818C1F34101022905D1A5
:104B6000D0F8001941F00301C0F80019D0F804187A
:104B700041F48071C0F804180020704770B50446F5
:104B800006990A9E049D0D98012916D0E06840F010
:104B90004000E060204600F02BF8A16B1EB321F42A
:104BA0008031A163012D07D1A16841F00601A16008
:104BB000A16841F02001A16070BDA16B21F480319A
:104BC000A163E168094A1140E160E16821F4401104
:104BD000E160012803D1E06840F48010E0602046E5
:104BE00000F006F8DEE741F48031DAE7BFFFBDFFF1
:104BF00001220C4902E0521C8A420BD80369002BA7
:104C0000F9DA026942F001020261012204E0521C59
:104C10008A4201D9032070470369DB07F7D10020DE
:104C200070470000400D030030B50B784D7801222D
:104C300003F00F0402FA04F4012DD0F83C5817D009
:104C400025EA0444C0F83C48D0F81C48097801F033
:104C50000F018A4024EA0241C0F81C1800EB4310FF
:104C6000D0F8001B0E4A1140C0F8001B002030BDD8
:104C7000A4B2A543C0F83C58D0F81C48097801F00C
:104C80000F018A4091B28C43C0F81C4800EB4310DE
:104C9000D0F80019034A1140C0F80019E6E70000F7
:104CA0000078F3EF007833EC10B5D0F8041821F059
:104CB0000201C0F804180320FCF70CFB002010BD13
:104CC00010B5D0F8041841F00201C0F80418032010
:104CD000FCF700FB002010BD2DE9F04F0025DDE9B9
:104CE0000BCB0E460446DDF84090099F2846294626
:104CF00004EB8002C2F80411401C0F28F8D3B9F16C
:104D0000000F204618D0006820F400122260A06B2B
:104D100040F40022A26308468846C4F8000ED4F886
:104D200000182046C4F80018BCF1010F10D0D0F8CC
:104D3000001841F0030110E0806B40F40012A26300
:104D4000A06B20F40022A263A06B20F48022E1E794
:104D5000D0F800180BB141F00101C0F80018102183
:104D600000F0A0FA00B10125204600F08BFA00B156
:104D700001254046C4F81088C4F81488C4F81C887B
:104D800000214FF000634FF090484FF67F3A14E057
:104D900004EB4112D2F800C9BCF1000F06DA11B1E0
:104DA000C2F8008904E0C4F8003901E0C2F8000943
:104DB000C2F81009C2F808A9491C8E42E8D800219F
:104DC00015E000BF04EB4112D2F800CBBCF1000F9C
:104DD00006DA11B1C2F8008B04E0C4F8003B01E030
:104DE000C2F8000BC2F8100BC2F808AB491C8E4287
:104DF000E8D8D4F8101821F480722146C4F810289D
:104E0000012F08D1134AC1F83028D1F83018124ABE
:104E10001143C4F83018A0616FF0804060611FB981
:104E2000A06940F01000A061A0690C490843A0618E
:104E3000BBF1000F03D0A06940F00800A061B9F1F8
:104E4000010F03D1A06906490843A0612846BDE8C7
:104E5000F08F0000000180000300010000383C805A
:104E600004000040816821F001018160002070474A
:104E700070B50D784E78434CEBB200EB4313012E26
:104E80001FD0D3F8100B6FF31200C3F8100BD3F838
:104E9000100B2040C3F8100B486908B188684861BE
:104EA000D3F8100B40F40020C3F8100BD3F8100B0C
:104EB0008C68C4F312042043C3F8100B012A55D0A8
:104EC00058E04E69002ED3F8106932D06FF3120605
:104ED000C3F81069D3F810692640C3F810694E6909
:104EE0008C68A64200D94C61D3F8104944F40024E0
:104EF000C3F81049D3F810494E69C6F3120634437B
:104F0000C3F81049012A22D000EB4512D2F800392B
:104F100043F00443C2F800394A6932B3D0F8342868
:104F2000097801F00F03012199400A43C0F83428A1
:104F300026E02640C3F81069D3F8104944F4002451
:104F4000C3F81049D3F810496FF31204D8E7096980
:104F500019B100EB4512C2F8141900EB4510D0F856
:104F6000001941F00441C0F8001909E0C86808B10F
:104F7000C3F8140BD3F8000B40F00440C3F8000B47
:104F8000002070BDFFFF07E010B5036C134CA34277
:104F900003D9D0F8003B002B1EDB0023C0F8103BE8
:104FA000D0F8103B43F40023C0F8103BD0F8103B7E
:104FB00043F01803C0F8103BD0F8103B43F0C04357
:104FC000C0F8103B012907D1C0F8142BD0F8001B02
:104FD00041F08021C0F8001B002010BD0A30544F62
:104FE0004A780B78012A00EB43100BD0D0F8002B45
:104FF00022F40012C0F8002BC978032914D002292A
:1050000012D017E0D0F8002922F40012C0F80029CD
:10501000C978032901D002290CD1D0F8001941F038
:105020008051C0F8001905E0D0F8001B41F0805114
:10503000C0F8001B002070470A784B78D1B200EB13
:105040004110012B12D0D0F8001B002906DB2AB139
:10505000D0F8001B21F08041C0F8001BD0F8001BE5
:1050600041F40011C0F8001B00207047D0F800196F
:10507000002906DB2AB1D0F8001921F08041C0F8E0
:105080000019D0F8001941F40011C0F80019EBE73D
:10509000F8B50C784F78774DE3B26FF0604600EBCF
:1050A0004313012F26D0D3F8104B6FF31204C3F82B
:1050B000104BD3F8104B2C40C3F8104B4C69002C0C
:1050C00074D08D682C44641EB4FBF5F4D3F8105BE7
:1050D000A4B206EAC4463543C3F8105BD3F8105BAC
:1050E0008E686643C6F312042543C3F8105B012A99
:1050F00071D0A6E04F691FB3D3F810796FF3120790
:10510000C3F81079D3F810792F40C3F810794F699C
:105110008D682F447F1EB7FBF5F506EAC545D3F829
:1051200010693543C3F81059D3F810594E69C6F3C6
:1051300012063543C3F81059CD78012D10D01BE06D
:10514000D3F810692E40C3F81069D3F8105945F40C
:105150000025C3F81059D3F810596FF3120509E070
:10516000D3F8105925F0C045C3F81059D3F8105999
:1051700045F00055C3F81059012A18D000EB44132C
:10518000D3F8004944F00444C3F80049CC78012C1A
:105190002FD04A6962B3D0F83428097801F00F03A0
:1051A000012199400A43C0F8342860E036E00A69DA
:1051B0001AB100EB4413C3F81429C97801290FD19F
:1051C000D0F80818C90500EB4411D1F8002903D420
:1051D00042F0005202E030E042F08052C1F8002973
:1051E00000EB4410D0F8001941F00441C0F8001958
:1051F0003DE0D0F80848E405D3F8004902D444F073
:10520000005401E044F08054C3F8004900928A8AB7
:1052100093B20A78C96800F03FF928E0D3F8104B40
:105220008D68C5F312052C43C3F8104BD3F8104B0F
:1052300044F40024C3F8104B59E7CA680AB1C3F814
:10524000142BC97801290CD1D0F80808C005D3F86F
:10525000000B02D440F0005001E040F08050C3F851
:10526000000BD3F8000B40F00440C3F8000B002003
:10527000F8BD0000FFFF07E0816841F00101816097
:1052800000207047002110220261054A491C91420A
:1052900001D9032070470369DB06F7D4002070476B
:1052A000400D03000022202343EA811101610549DA
:1052B000521C8A4201D90320704703699B06F7D428
:1052C00000207047400D0300D0F8080810F00600D9
:1052D00004D0022803D0062801D00F2070470220F6
:1052E0007047406900F001007047D0F81818D0F8F6
:1052F0001C08084080B27047D0F81818D0F81C0875
:105300000840000C704710B5D0F81038D0F8342899
:1053100001F00F0400EB4110E24002F00102D0F86E
:10532000080943EAC212104010BD00EB4111D1F848
:10533000081BD0F81408084070474169806908408C
:105340007047D21C10B59308002200F5805002E08F
:105350000468521C10C19A42FAD3084610BD10B519
:10536000C26822F0C042C260012902D029B10120E6
:1053700010BDC16841F0005102E0C16841F08041B8
:10538000C1603220FBF7A6FF002010BDD0F8002836
:1053900022F4FE62C0F80028D0F800284FF4FE6323
:1053A00003EA01110A43C0F80028002070470000FA
:1053B000022A3ED1264A274B0A449A4201D20F21A3
:1053C00038E0254A254B0A449A4201D20E2131E0A9
:1053D000234A244B0A449A4201D20D212AE0224A50
:1053E000224B0A449A4201D20C2123E0204A214B4D
:1053F0000A449A4201D20B211CE01F4A1F4B0A4467
:105400009A4201D20A2115E01D4A1E4B0A449A42D3
:105410000FD31D4A1D4B0A449A4201D2082109E0CC
:105420001B4A11441B4A914201D2072102E0062186
:1054300000E00921C26822F47052C260C2684FF4D1
:10544000705303EA81210A43C260002070470000C4
:10545000405327FF00350C00401E1BFF40420F0049
:1054600000DC0BFF804F1200808CF9FE20D6130069
:1054700060B6E5FE60E3160000D3CEFE40771B0069
:10548000C05BB3FEC091210000CA91FE20753800B8
:10549000E05459FEE09C410010B5029C64B9DB1C4D
:1054A0009C0800EB0230002300F5805002E004C9A4
:1054B00002605B1CA342FAD3002010BDFEE700008F
:1054C0000FB4084B10B504A902AA039801F0B8F96B
:1054D000044602A9002001F04AFD204610BC5DF8F8
:1054E00014FB00006F6F000803B40198410000989E
:1054F00050EAC12018BF04204A0D18BF40F0010037
:1055000040F2FF72B2EB515F08BF40F00200012889
:1055100008BF052002B070470907090E002804DB08
:1055200000F1E02080F80014704700F00F0000F157
:10553000E02080F8141D704770B59B482DED020BDC
:105540002DED068B079D25F00044A04218DC9748FE
:10555000844202DC0AD1069840B19DED060BBDECF9
:10556000068B02B0BDE8704001F04EB8002DCCBFF4
:105570009FED8F0B9FED900BBDEC068B02B070BDC5
:105580008F48A04215DD8F48A042D8BF4FF0FF34AE
:1055900058DD9DED060B51EC100BFFF7A5FF04281D
:1055A00008BF01F065F89DED060BBDEC068B02B05F
:1055B00070BD9DED060B51EC100B01F0DDFDCDE94A
:1055C000060181489FED828BA0423CDD8248A042CB
:1055D0001FDD00249FED82AB9DED060B53EC1A2BD3
:1055E00051EC100BFAF748FE9DED060B41EC190B40
:1055F00053EC1A2B51EC100BFAF7E5FE53EC182B79
:10560000FAF7DBFE53EC192BFAF74FFFCDE9060151
:1056100049E09DED060B012453EC182B51EC100BC7
:10562000FAF72AFE9DED060B41EC190B53EC182BF3
:1056300051EC100BFAF7C1FE53EC192BFAF735FFBA
:10564000CDE906012FE06848A0421FDD02249FED4E
:10565000689B9DED060B53EC192B51EC100BFAF7E0
:10566000B2FE53EC182BFAF707FE9DED060B41EC4A
:10567000180B53EC192B51EC100BFAF79EFE53EC60
:10568000182BFAF712FFCDE906010CE09DED060B91
:10569000032453EC102B9FED580B51EC100BFAF731
:1056A00004FFCDE906019DED060B53EC102B51ECE8
:1056B000100BFAF788FE41EC180B53EC182BFAF795
:1056C00082FE41EC190B4E480621B0EE490AF0EE7D
:1056D000690A784400F001FF53EC182B51EC100BD1
:1056E000FAF771FE41EC180B4648B0EE490AF0EEAD
:1056F000690A0521784400F0F0FE53EC192B51ECB7
:10570000100BFAF760FE41EC100B51EC180B53EC48
:10571000102B002C0EDAFAF7AFFD9DED061B53ECB3
:10572000112BFAF750FE9DED061B53EC112BFAF7E7
:1057300047FE35E0FAF7A0FD9DED061B53EC112B5B
:10574000FAF741FE41EC100B2F48784400EBC400FF
:1057500090ED001B51EC100B53EC112BFAF72DFEC2
:105760009DED061B53EC112BFAF727FE41EC100BB5
:105770002648784400EBC40090ED001B51EC100B60
:1057800053EC112BFAF71CFE41EC100B002DA2BFBD
:10579000BDEC068B02B070BD51EC100B81F00041E6
:1057A00041EC100B01E70000000010440000F07F06
:1057B000182D4454FB21F93F182D4454FB21F9BF07
:1057C0000000DC3F0000203E0000F33F000000002E
:1057D000000000000000F03F0000E63F0000000075
:1057E00000000000000000400080034000000000B6
:1057F000000000000000F83F000000000000F0BFC3
:10580000CA260000802600000A260000C2250000EB
:105810002DE9F04D2DED040B2DED0E8B96B0DDE94D
:105820002550279CDDF890A025F0004624F0004884
:10583000BAF1000F14BF0121002101EB4502FC4920
:1058400053184A1093422AD3002814BF012300237F
:1058500003EB44030B44F7498B4220D358EA000181
:105860009FEDF59B76D0DFF8D8B35D4503D1BAF153
:10587000000F05D188E0BAF1000F08BF002100D069
:10588000012101EB450111F5001F08D8002814BFC4
:105890000121002101EB440111F5001F0BD99DED01
:1058A000261B9DED240B16B0BDEC0E8B04B0BDE89D
:1058B000F04D00F0B3BE0027002DBCBFE149884584
:1058C00021DAE1498845A8BF02271CDAC3451ADC62
:1058D000DE4901EB2851142908DDC1F1340220FA18
:1058E00002F101FA02F282420DD108E058B9C1F189
:1058F000140228FA02F101FA02F2424503D101F042
:105900000101C1F1020756EA0A0124D1002C22DA72
:10591000002D18BF022F01D0012F0AD0022000F065
:10592000C7FE16B0BDEC0E8B04B0BDE8F04D00F024
:1059300053BE022000F0BCFE00F04EFE51EC100BF6
:1059400081F0004141EC100B16B0BDEC0E8B04B0A1
:10595000BDE8F08D18E09FEDBEAB9FEDBF8B00283A
:1059600071D1B848804522D105F1804010F58010F2
:1059700008BFBAF1000F07D0B3450ADC002CA8BF5E
:105980009DED260BE0DA0DE0B0EE490AF0EE690A73
:10599000DAE7002C06DA9DED260B51EC100B81F0B6
:1059A00000416FE0AE48784490ED000BCCE7D8455D
:1059B0004DD1002C48DA2EB186423AD1BAF1000F0F
:1059C00042D126E0BAF1000F13D0022000F070FEA1
:1059D00000F03EFE8DED020B9DED240B8DED000BD6
:1059E00010EE900A039961F31E0003909DED020BE7
:1059F000AAE78DED02AB9DED240B1AEE901A10EE86
:105A0000900A8DED000B61F31E0003909DED020BDB
:105A10009AE78DED028B9DED240B18EE901A10EE97
:105A2000900A8DED000B61F31E0003909DED020BBB
:105A30008AE709DA9DED240B51EC190B53EC102B7E
:105A4000FAF733FD1EE020E09DED240B7CE7864253
:105A50001BDAB4F1804F0DD0A4F10050B0F1FF502B
:105A600013D1002D11DB9DED240B51EC100B02F036
:105A70007FF807E09DED240B53EC102B51EC100B3D
:105A800000F0C2BC41EC100B5EE79DED240B51EC25
:105A9000100B01F071FBBAF1000FCDE90E0142D1FC
:105AA0009FED710B46B3A6F1E040B0F17F600CD0E2
:105AB0005E4538D1002D00DAA7B3022F0CBF0120BC
:105AC0004FF0FF30FAF7DFFEDCE7002D01DD002CA0
:105AD0000DDA002D01DD002C1FDB002D16DA002C65
